:100000000C945D000C9485000C9485000C94850084
:100010000C9485000C9485000C9485000C9485004C
:100020000C9485000C9485000C9485000C9485003C
:100030000C9485000C9485000C9485000C9485002C
:100040000C948A040C9485000C94FA040C94D40447
:100050000C9485000C9485000C9485000C9485000C
:100060000C9485000C9485000000000024002700FB
:100070002A0000000000250028002B0004040404CE
:100080000404040402020202020203030303030342
:10009000010204081020408001020408102001021F
:1000A00004081020000000080002010000030407FB
:1000B00000000000000000002C0511241FBECFEF3F
:1000C000D8E0DEBFCDBF24E0ACECB1E001C01D92B2
:1000D000AB3CB207E1F711E0A0E0B1E0E4EEF3E100
:1000E00002C005900D92AC3CB107D9F710E0CDE508
:1000F000D0E004C02197FE010E94EE07CC35D10765
:10010000C9F70E94D3050C94F0090C94000090E00C
:10011000FC01E057FF4F2491FC01E458FF4F84910C
:10012000882399F090E0880F991FFC01E859FF4F50
:10013000A591B491FC01EE58FF4F859194918FB732
:10014000F894EC91E22BEC938FBF08953FB7F894AD
:100150008091D1019091D201A091D301B091D401AD
:1001600026B5A89B05C02F3F19F00196A11DB11D12
:100170003FBFBA2FA92F982F8827820F911DA11D4D
:10018000B11DBC01CD0142E0660F771F881F991F8A
:100190004A95D1F708958F929F92AF92BF92CF92D6
:1001A000DF92EF92FF926B017C010E94A6004B014F
:1001B0005C01C114D104E104F104F1F00E94A60035
:1001C000DC01CB0188199909AA09BB09883E934033
:1001D000A105B10570F321E0C21AD108E108F108C8
:1001E00088EE880E83E0981EA11CB11CC114D104B6
:1001F000E104F10419F7DDCFFF90EF90DF90CF908D
:10020000BF90AF909F908F9008952FB7F894609112
:10021000CD017091CE018091CF019091D0012FBF7F
:100220000895CF92DF92EF92FF920F931F93CF9397
:10023000DF936C017A018B01C0E0D0E0CE15DF05C1
:1002400081F0D8016D918D01D601ED91FC91019065
:10025000F081E02DC6010995892B11F02196EECF92
:100260007E01C701DF91CF911F910F91FF90EF9019
:10027000DF90CF900895089580E090E00895FC010C
:10028000538D448D252F30E0842F90E0821B930BFB
:10029000541710F0CF96089501970895FC01918DA1
:1002A000828D981761F0828DDF01A80FB11D5D96D8
:1002B0008C91928D9F5F9F73928F90E008958FEF46
:1002C0009FEF0895FC01918D828D981731F0828DFA
:1002D000E80FF11D858D90E008958FEF9FEF089551
:1002E000FC01918D228D892F90E0805C9F4F821BB5
:1002F00091098F73992708958DED91E00E94700107
:1003000021E0892B09F420E0822F0895FC01848DDF
:10031000DF01A80FB11DA35ABF4F2C91848D90E02F
:1003200001968F739927848FA689B7892C93A0890A
:10033000B1898C91837080648C93938D848D981394
:1003400006C00288F389E02D80818F7D8083089527
:10035000EF92FF920F931F93CF93DF93EC0181E015
:10036000888F9B8D8C8D981305C0E889F9898081D1
:1003700085FD26C0F62E0B8D10E00F5F1F4F0F730B
:100380001127E02E8C8DE8120CC00FB607FCFACFB7
:10039000E889F989808185FFF5CFCE010E94860129
:1003A000F1CF8B8DFE01E80FF11DE35AFF4FF08274
:1003B0009FB7F8940B8FEA89FB89808180620AC01D
:1003C0009FB7F894EE89FF896083E889F989808175
:1003D0008370806480839FBF81E090E0DF91CF9144
:1003E0001F910F91FF90EF900895CF93DF93EC0151
:1003F000888D8823C9F0EA89FB89808185FD05C045
:10040000A889B9898C9186FD0FC00FB607FCF5CF7E
:10041000808185FFF2CFA889B9898C9185FFEDCFC6
:10042000CE010E948601E7CFDF91CF91089580E051
:1004300090E0892B29F00E947C0181110C9400002E
:10044000089542E050E068E171E08DED91E00C9498
:100450001101CF93DF93009779F0FC010190002008
:10046000E9F73197AF01481B590BBC018DED91E0C5
:100470000E941101EC0102C0C0E0D0E00E94210204
:100480008C0F9D1FDF91CF910895FB01208130E0FB
:1004900080E090E0A901082E02C0559547950A9486
:1004A000E2F740FF02C05C9A01C05C985D9A559AE1
:1004B00042E157E24B9907C041505109D9F75D9885
:1004C0008BE191E00AC05D9846E650E04B9B09C085
:1004D00041505109D9F784E391E00E94290280E05C
:1004E000089501968830910509F0D4CF81E00895F0
:1004F000CF92DF92EF92FF920F931F93CF93DF93F0
:10050000EC018B010E940501CA80DB80EC80FD803C
:100510002FEFC21AD20AE20AF20A6C157D058E0587
:100520009F0538F461E070E080E090E00E94CB002D
:10053000E9CF0E9405016A837B838C839D83B80188
:1005400088819981DF91CF911F910F91FF90EF905A
:10055000DF90CF900C9445022F923F924F925F9282
:100560006F927F928F929F92AF92BF92CF92DF92C3
:10057000EF92FF920F931F93CF93DF93CDB7DEB728
:10058000C554D2400FB6F894DEBF0FBECDBF1AE7F8
:10059000412E12E0512ECC5BDD4F19821882C454DB
:1005A000D240C12CD12C760160E070E0CC5BDD4FF5
:1005B00068807980C454D240F20125E030E0CE5BFF
:1005C000DD4F39832883C254D2401B0131E02322FE
:1005D00033242114310479F4CE5BDD4F8881998175
:1005E000C254D240CC5BDD4FA881B981C454D24003
:1005F0008A0F9B1F01C0C301208531853093D5012F
:100600002093D601468157815093D9014093DA0156
:1006100005ED11E0AA24A394B12CAC0EBD1E8A0DE9
:100620009B1DD8019D908D01DC019D92CD01ADED0A
:10063000AA2EA1E0BA2EA016B10699F70481158161
:100640002017310749F0C901801B910B4C01880C20
:10065000991C880C991C02C0812C912C8281938159
:1006600048175907B1F0DA01A81BB90BCD01880F63
:10067000991F880F991F8815990578F4201731075D
:1006800051F0C901801B910B880F991F880F991F8A
:1006900004C0892899F780E090E04C01A12CB12C8E
:1006A000C814D904EA04FB0410F47501640135830D
:1006B000248353834283CE5BDD4F28813981C2542A
:1006C000D24021503109CE5BDD4F39832883C2549B
:1006D000D24038963FEF631A730ACE5BDD4F8881B4
:1006E0009981C254D240019609F073CF6F5F7F4F5A
:1006F000CC5BDD4FE881F981C454D2403696CC5BA7
:10070000DD4FF983E883C454D240F0E34F0E511C0F
:100710006C30710509F04ACF00917A0210917B028A
:1007200082E0CF5BDD4F8883C154D240BE016F5B56
:100730007D4FC8010E947802882359F1D801AD90FD
:10074000BC90FE0131964F018E01075F1F4FB4012F
:10075000C5010E9445028823E1F0FFEF8F1A9F0A2E
:1007600008151905A1F70E9405012AE0C20ED11C47
:10077000E11CF11CDC01CB018C0D9D1DAE1DBF1DCC
:100780008093BC049093BD04A093BE04B093BF04B7
:1007900004C08FE491E00E942902CB5BDD4F0FB6CD
:1007A000F894DEBF0FBECDBFDF91CF911F910F91A7
:1007B000FF90EF90DF90CF90BF90AF909F908F9081
:1007C0007F906F905F904F903F902F900895CF93C0
:1007D000DF93EC0188819981009711F00E948C08C9
:1007E000198218821D821C821B821A82DF91CF918E
:1007F00008950E94DB090F931F93CF93DF93EC01C1
:1008000088819981009729F02A813B812617370733
:1008100088F48B016F5F7F4F0E941509009761F08C
:10082000998388831B830A832C813D81232B11F4B8
:10083000FC01108281E001C080E0DF91CF911F9127
:100840000F910895EF92FF920F931F93CF93DF9331
:100850006115710511F480E01CC041155105C1F00E
:100860007B01EC018C819D818A01080F191FB80161
:10087000CE010E94FB03882371F3288139818C818A
:100880009D81B701820F931F0E94E9091D830C838C
:1008900081E0DF91CF911F910F91FF90EF9008952C
:1008A000CF93DF93EC016115710561F0FB010190BD
:1008B0000020E9F73197AF01461B570B0E94220435
:1008C000811103C0CE010E94E703CE01DF91CF91D9
:1008D0000895EF92FF920F931F93CF93DF93EC0154
:1008E0007B018A01BA010E94FB03811104C0CE0181
:1008F0000E94E70307C01D830C83B701888199819B
:100900000E94E909CE01DF91CF911F910F91FF90D5
:10091000EF9008951F920F920FB60F9211242F930C
:100920003F938F939F93AF93BF938091CD0190910D
:10093000CE01A091CF01B091D0013091CC0123E044
:10094000230F2D3720F40196A11DB11D05C026E807
:10095000230F0296A11DB11D2093CC018093CD01E0
:100960009093CE01A093CF01B093D0018091D1019B
:100970009091D201A091D301B091D4010196A11D13
:10098000B11D8093D1019093D201A093D301B09374
:10099000D401BF91AF919F918F913F912F910F9073
:1009A0000FBE0F901F9018951F920F920FB60F92C7
:1009B00011242F933F934F935F936F937F938F9364
:1009C0009F93AF93BF93EF93FF938DED91E00E94C0
:1009D0008601FF91EF91BF91AF919F918F917F9190
:1009E0006F915F914F913F912F910F900FBE0F909C
:1009F0001F9018951F920F920FB60F9211242F93EC
:100A00008F939F93EF93FF93E091ED01F091EE01AF
:100A10008081E091F301F091F40182FD12C0908198
:100A20008091F6018F5F8F732091F701821751F04B
:100A3000E091F601F0E0E352FE4F958F8093F601CE
:100A400001C08081FF91EF919F918F912F910F9025
:100A50000FBE0F901F9018951092E0011092DF01C9
:100A600088EE93E0A0E0B0E08093E1019093E20192
:100A7000A093E301B093E4018AE091E09093DE015A
:100A80008093DD0185EC90E09093EA018093E90189
:100A900084EC90E09093EC018093EB0180EC90E08B
:100AA0009093EE018093ED0181EC90E09093F00142
:100AB0008093EF0182EC90E09093F2018093F1013A
:100AC00086EC90E09093F4018093F3011092F6018C
:100AD0001092F7011092F8011092F90184E00E943F
:100AE000870085E00E948700E9EAF0E08491E5E96B
:100AF000F0E09491E1E8F0E0E491EE23B9F188238D
:100B000039F1833091F038F48130A9F0823001F569
:100B100084B58F7D12C0873091F08830A1F0843089
:100B2000B9F4809180008F7D03C0809180008F7721
:100B3000809380000DC084B58F7784BD09C08091FB
:100B4000B0008F7703C08091B0008F7D8093B0009C
:100B5000F0E0EE0FFF1FEE58FF4FA591B4912FB7B5
:100B6000F8948C91909598239C932FBF86EC94E0F9
:100B70009093C1048093C0040E940501DC01CB0165
:100B80008053984FAF4FBF4F8093C2049093C304DC
:100B9000A093C404B093C50480EC94E090937B02CE
:100BA00080937A020895CF93DF93CDB7DEB7A897ED
:100BB0000FB6F894DEBF0FBECDBF789484B58260C7
:100BC00084BD84B5816084BD85B5826085BD85B5F1
:100BD000816085BD80916E00816080936E0010926F
:100BE00081008091810082608093810080918100EA
:100BF000816080938100809180008160809380007B
:100C00008091B10084608093B1008091B0008160D8
:100C10008093B00080917A00846080937A00809104
:100C20007A00826080937A0080917A00816080935C
:100C30007A0080917A00806880937A001092C100D7
:100C4000E091ED01F091EE0182E08083E091E90115
:100C5000F091EA011082E091EB01F091EC018FEC50
:100C600080831092F501E091F101F091F20186E0AC
:100C70008083E091EF01F091F001808180618083B9
:100C8000E091EF01F091F001808188608083E09134
:100C9000EF01F091F001808180688083E091EF01A5
:100CA000F091F00180818F7D808389E791E00E943F
:100CB0002902E12CF12C35E0632E712C8E010F5F9F
:100CC0001F4F570143018E189F08C12CD12CC0FC27
:100CD00002C0C40101C0C5011CA21BA21EA21DA20C
:100CE00018A61FA24AE0B8010E948D07F8010190E2
:100CF0000020E9F73197AF01401B510BB801CE013D
:100D000083960E9469041A8219821C821B821E82A9
:100D10001D826BA17CA16115710529F04FA158A519
:100D2000C8010E94690465EC71E0C8010E9450048A
:100D3000FC0144815581608171818DED91E00E94BB
:100D4000110189819A810E948C088BA19CA10E942B
:100D50008C08FFEFCF1ADF0AC40106964C01F5019B
:100D600036965F01FCE0CF16D10409F0B0CF0E94A7
:100D700021028FEFE81AF80A96E0E916F10409F06B
:100D8000A0CF87E891E00E94290280917A02909199
:100D90007B0221E02983B8010E9478028FE991E06B
:100DA0000E9429028AEBE82E84E0F82E94EBC92EEB
:100DB000D12C2AE5A22EB12C64E670E080E090E010
:100DC0000E94CB008AE792E0FC0120E030E0D1866F
:100DD000C086B782A6822F5F3F4F389626303105F6
:100DE000B1F7C096E816F90679F70E940501409020
:100DF000BC045090BD046090BE047090BF046415A4
:100E000075058605970508F454C00E94A6002B01BD
:100E10003C010E94AC020E94A6001CA21BA21EA2C2
:100E20001DA218A61FA264197509860997092AE050
:100E3000A8010E945C07F80101900020E9F73197B2
:100E4000AF01401B510BB801CE0183960E9469048B
:100E50001A8219821C821B821E821D8240E150E090
:100E600066EB71E0C8010E9469044FA158A56BA10F
:100E70007CA1C8010E942204811103C0C8010E9404
:100E8000E70367EC71E0C8010E945004FC01448153
:100E90005581608171818DED91E00E9411010E9468
:100EA000210289819A810E948C088BA19CA10E94B9
:100EB0008C080E94170280CFBB272A3051F4992357
:100EC00042F4BDE290958095709561957F4F8F4F6C
:100ED0009F4F0C946C07BB27FA01A62F6217710570
:100EE00081059105330B30FB66F0AA27660F771F4B
:100EF000881F991FAA1FA21710F0A21B63953850D4
:100F0000A9F7A05DAA3308F0A95DA19336F7B11146
:100F1000B1931082CA010C94A707BB27FB01552788
:100F2000AA27880F991FAA1FA41710F0A41B839546
:100F30005051B9F7A05DAA3308F0A95DA1930097BD
:100F400079F7B111B1931192CB010C94A707DC0191
:100F5000FC01672F71917723E1F7329704C07C91F0
:100F60006D9370836291AE17BF07C8F308952F92F7
:100F70003F924F925F926F927F928F929F92AF9229
:100F8000BF92CF92DF92EF92FF920F931F93CF9376
:100F9000DF93CDB7DEB7CA1BDB0B0FB6F894DEBF0D
:100FA0000FBECDBF09942A88398848885F846E8433
:100FB0007D848C849B84AA84B984C884DF80EE807D
:100FC000FD800C811B81AA81B981CE0FD11D0FB686
:100FD000F894DEBF0FBECDBFED010895EE0FFF1FE9
:100FE0000590F491E02D09940F931F93CF93DF9315
:100FF0008230910510F482E090E0E091C904F09114
:10100000CA0420E030E0A0E0B0E0309719F1408160
:1010100051810281138148175907C8F08417950739
:1010200069F4109731F012960C93129713961C9353
:1010300027C00093C9041093CA0422C021153105AA
:1010400019F04217530718F49A01BD01EF01DF01AF
:10105000F801DBCF21153105F9F0281B390B2430BD
:10106000310580F48A819B816115710521F0FB01B6
:101070009383828304C09093CA048093C904FE01C1
:10108000329644C0FE01E20FF31F819391932250E8
:101090003109398328833AC02091C7043091C804AC
:1010A000232B41F420910201309103013093C804B5
:1010B0002093C704209100013091010121153105D1
:1010C00041F42DB73EB74091040150910501241B16
:1010D000350BE091C704F091C804E217F307A0F4C0
:1010E0002E1B3F0B2817390778F0AC014E5F5F4F7E
:1010F0002417350748F04E0F5F1F5093C8044093E4
:10110000C7048193919302C0E0E0F0E0CF01DF914A
:10111000CF911F910F910895CF93DF93009709F41A
:1011200081C0FC01329713821282A091C904B09150
:10113000CA04109781F420813181820F931F20917E
:10114000C7043091C8042817390751F5F093C80433
:10115000E093C70467C0ED0120E030E0CE17DF0761
:1011600040F44A815B819E0141155105F1F0EA018D
:10117000F5CFD383C28340815181840F951FC81757
:10118000D90759F488819981840F951F029691831C
:1011900080838A819B81938382832115310529F481
:1011A000F093CA04E093C9043DC0E901FB83EA83DC
:1011B00049915991C40FD51FEC17FD0761F4808147
:1011C0009181840F951F0296E9019983888382811A
:1011D00093819B838A83E0E0F0E012968D919C914D
:1011E0001397009719F0FD01DC01F7CF8D919C91C9
:1011F00011979D012E5F3F4F820F931F2091C704CF
:101200003091C8042817390769F4309729F41092EF
:10121000CA041092C90402C013821282B093C80497
:10122000A093C704DF91CF910895A0E0B0E0EBE177
:10123000F9E00C94BB07EC01009721F4CB010E946C
:10124000F407B4C0FC01E60FF71F9C0122503109DE
:10125000E217F30708F4A8C0D9010D911C9111976A
:1012600006171707B0F00530110508F49BC0C80138
:1012700004978617970708F495C002501109061BBA
:10128000170B019311936D937C93CF010E948C08EF
:1012900089C05B01A01AB10A4C01800E911EA09179
:1012A000C904B091CA04612C712CE12CF12C109767
:1012B00009F446C08D919C911197A815B905B1F517
:1012C0006C0142E0C40ED11CCA14DB0478F14C015D
:1012D0008A189B08640142E0C40ED11C1296BC908F
:1012E00012971396AC91B5E0CB16D10440F0B282C0
:1012F000A38391828082D9016D937C9309C00E5F94
:101300001F4F800F911FF90191838083EB2DFA2FDE
:10131000E114F10431F0D7011396FC93EE93129788
:1013200041C0F093CA04E093C9043CC06816790632
:1013300008F43C017D0112960D90BC91A02DB7CF11
:101340008091C7049091C80488169906E1F4661646
:101350007706C8F48091000190910101009741F453
:101360008DB79EB74091040150910501841B950BE8
:10137000E817F907C8F4F093C804E093C704F9012B
:10138000718360830FC0CB010E94F4077C0100973A
:1013900059F0A801BE010E94E009CE010E948C080C
:1013A000C70104C0CE0102C080E090E0CDB7DEB737
:1013B000EEE00C94D70781E090E0F8940C94F009EB
:1013C000FB01DC0102C001900D9241505040D8F762
:1013D0000895FB01DC0101900D920020E1F70895D2
:0413E000F894FFCFAF
:1013E4000000CB04800000000000A80111013F01AF
:1013F400F50170014E0162010D0A004B65696E65CD
:1014040020526573706F6E736520657268616C74C9
:10141400656E2E00526573706F6E736520696D6D15
:101424006572206E6F636820616B7469762E004468
:10143400617320496D616765206B6F6E6E74652002
:101444006E696368742076657273636869636B742C
:101454002077657264656E2E005468652077697222
:101464006572696E673A0043616C696272617465A2
:101474002065766572797468696E672E2E2E005326
:101484006574757020726F7574696E6520636F6D15
:10149400706C6574650053656E64696E6720646F73
:0C14A4006E6520696E200020C2B5730048
:00000001FF
