:020000040800F2
:100000000000022099280008E52800088D15000846
:1000100093150008991500089F15000800000000BE
:10002000000000000000000000000000E5280008BB
:10003000E528000800000000E5280008E528000881
:10004000E5280008E5280008E5280008E52800085C
:10005000E5280008E5280008E5280008E52800084C
:10006000E5280008E5280008E5280008E52800083C
:10007000E5280008E5280008E5280008E52800082C
:10008000E5280008E5280008E528000871150008A3
:1000900075150008E528000865150008E528000822
:1000A000E5280008E5280008E5280008E5280008FC
:1000B000E5280008E5280008E5280008E5280008EC
:1000C000E5280008E5280008E5280008E5280008DC
:1000D000E5280008E5280008E5280008E5280008CC
:1000E000E5280008E5280008E5280008E5280008BC
:1000F000E5280008E5280008E5280008E5280008AC
:10010000E5280008E5280008E5280008E52800089B
:10011000E5280008E5280008E5280008E52800088B
:10012000E5280008E5280008E5280008E52800087B
:10013000E528000800000000000000008515000808
:1001400089150008E528000879150008E528000849
:10015000E5280008E5280008E5280008E52800084B
:10016000E5280008E5280008E5280008E52800083B
:10017000E5280008E5280008E52800080000000040
:1001800000000000E528000800000000000000005A
:10019000E52800080000000000000000E528000835
:1001A000000000000000000000000000E52800083A
:1001B000E5280008E5280008E5280008E5280008EB
:1001C000E528000810B5054C237833B9044B13B16A
:1001D0000448AFF300800123237010BDA80C002059
:1001E00000000000C0DE000808B5034B1BB1034946
:1001F0000348AFF3008008BD00000000AC0C0020F5
:10020000C0DE0008154B002B08BF134B9D46A3F51D
:10021000803A00218B460F461348144A121A05F003
:10022000FFFC0F4B002B00D098470E4B002B00D04B
:1002300098470020002104000D000D48002802D03E
:100240000C4801F0E3FC05F0B1FA2000290001F0B0
:1002500097FF01F04DFE00BF0000080000000220E3
:100260000000000071210008A80C0020081E0020DA
:100270000D1C00080000000082B001900091009B5E
:10028000002B05D0019B9B68019A12681A6005E05B
:10029000019B1A68019BDB6812041A6000BF02B060
:1002A000704782B00190019B5B681A68019B1B68D4
:1002B0001340002B01D0012300E00023184602B0B8
:1002C000704700B583B001900B46ADF80230019B3A
:1002D0001A460023136053609360D3601361536127
:1002E0009361019BBDF902201146184603F037FEC9
:1002F000019B184603B05DF804FB00B583B0019084
:10030000019B1846FFF7CDFF0346184603B05DF882
:1003100004FB00B583B001900B46ADF80230019BA1
:100320001A460023136053609360D36013615361D6
:100330009361019BBDF902201146184603F022FE8D
:10034000019B184603B05DF804FB00B583B0019033
:100350000091019B00991846FFF78EFF00BF03B084
:100360005DF804FB00B583B00190009100990198FD
:10037000FFF7EBFF019B184603B05DF804FB00009C
:1003800000B583B00190019A0349044804F034F9A0
:1003900000BF03B05DF804FB44CE0008CC0D002084
:1003A00000B583B00190019B5E211846FFF7B1FFB5
:1003B000019B1C334B211846FFF7ABFF019B3833E1
:1003C0004D211846FFF77DFF019B1C330021184685
:1003D000FFF7C8FF019B184603B05DF804FB00B5AA
:1003E00085B00190009100238DF80F309DF80F30FB
:1003F000072B22D8009B1B781A469DF80F3042FA33
:1004000003F303F00103002B14BF01230023DBB22D
:100410001946019800F03AF8019800F04FF80346A9
:1004200083F00103DBB2002B01D0002306E09DF82E
:100430000F3001338DF80F30D8E70123184605B08F
:100440005DF804FB00B587B0039002910192002390
:100450000593019B1B68059A9A4212D2029A059B4A
:10046000134419460398FFF7BAFF034683F00103CC
:10047000DBB2002B01D0002304E0059B0133059380
:10048000E7E70123184607B05DF804FB00B583B029
:1004900001900B468DF80330019B9DF80320114617
:1004A0001846FFF75FFF019B1C3301211846FFF739
:1004B00059FF00BF03B05DF804FB000000B585B034
:1004C000019000230393019B38331846FFF715FF73
:1004D0000346002B0CBF01230023DBB2002B12D0FC
:1004E000039B1C4A93420AD9019B1C3300211846E6
:1004F000FFF738FF1848FFF743FF002325E0039B71
:1005000001330393DFE7019B1C3300211846FFF7FB
:1005100029FF00230393019B38331846FFF7EDFEB4
:100520000346002B14BF01230023DBB2002B0BD0AA
:10053000039B642B04D90948FFF722FF002304E042
:10054000039B01330393E6E70123184605B05DF8EA
:1005500004FB00BF40420F0048CE000864CE0008F4
:1005600000B583B00190019B1433184600F03BF9AD
:100570000346002B06D1019B184600F034F90346D0
:10058000002B01D0012300E00023184603B05DF8E2
:1005900004FB00B583B00190019B1433184600F0B2
:1005A00030F9019B184600F02CF900BF03B05DF84C
:1005B00004FB000000B587B00190019B143318467E
:1005C00000F04CF9039000230593059B032B0CDCF2
:1005D000059B039A13441978114A059B13440A4654
:1005E0001A70059B01330593EFE7019B184600F055
:1005F00035F9029000230493049B032B0BDC049B2E
:10060000029A1A44049B04331178054AD154049B7E
:1006100001330493F0E7024B184607B05DF804FB82
:10062000C40C002000B585B00190019B143318461E
:1006300000F08CF903460293019B184600F086F9FE
:100640000346039303AA02AB1146184600F016F8BE
:1006500003461B68184605B05DF804FB00B583B07F
:100660000190019B1433184600F084F9019B184651
:1006700000F080F900BF03B05DF804FB82B0019088
:100680000091019B1A68009B1B689A4201DA009B4B
:1006900000E0019B184602B07047000000B583B02F
:1006A00001900091019B009A1A60084803F0C7FB73
:1006B000064803F0FFFB034603F5FA62019B5A600C
:1006C000019B184603B05DF804FB00BFD00C00206E
:1006D00000B585B0019001238DF80F300DF10F03A7
:1006E0001946019800F028F80346184605B05DF851
:1006F00004FB00B587B003900291019202238DF8AC
:1007000017300DF117031946039800F015F803464A
:1007100083F00103DBB2002B01D0002307E0039B31
:100720001B68019A02991846FFF78CFE034618468B
:1007300007B05DF804FB000000B583B001900091A4
:10074000154803F0B7FB0246019B5B6832339A42BF
:10075000B4BF01230023DBB2002B03D0012004F03F
:1007600026F9EDE70C4803F0A5FB0246019B5A6011
:10077000019B1B6800991846FFF731FE034683F082
:100780000103DBB2002B01D0002300E00123184657
:1007900003B05DF804FB00BFD00C002000B583B0AF
:1007A00001900091019B012B0CD1009B4FF6FF7231
:1007B000934207D1054803F097FB054A05490348D2
:1007C00001F022FA00BF03B05DF804FBD00C00205A
:1007D000C80100201F3E000808B54FF6FF71012038
:1007E000FFF7DCFF08BD82B00190019B1A68019BF6
:1007F0005B689A4214BF01230023DBB2184602B0A3
:10080000704782B00190019B5A68019B1A60019B5E
:1008100000229A6000BF02B07047000010B582B09D
:1008200001900091009A13469B0213445B00184606
:100830000BF026F84FF00002074B0BF0C5F903460A
:100840000C46184621460BF06DFB0246019B5A6090
:1008500000BF02B010BD00BF0080764082B00190A2
:10086000019B5B681B09DAB2174B1A70019B5B682E
:10087000DBB21B01DAB2144B5A70134B5A78019B4E
:100880009B681B0ADBB203F00F03DBB21344DAB23E
:100890000D4B5A70019B9B68DAB20B4B9A70019B0F
:1008A000DB68DBB223F00103DAB2074BDA70064BE8
:1008B000DB78019A127C1344DAB2034BDA70024BF4
:1008C000184602B0704700BFF00C002084B00190C1
:1008D000019B9B680393019B1B7C002B19D0019B00
:1008E0005A68019B1B689A420AD2019B5A68019B75
:1008F0001B68D21A039B134403F60203039321E0FF
:10090000019B5A68019B1B68D31A039A13440393F3
:1009100018E0019B5A68019B1B689A420AD9019B07
:100920001A68019B5B68D21A039B134403F6020307
:10093000039307E0019B1A68019B5B68D31A039A33
:1009400013440393039B184604B0704700B583B06B
:1009500001900198FFF7BAFF0146019BDB68642212
:1009600002FB03F303F57A6303FB01F3184603B0BC
:100970005DF804FB82B00190019B00221A60019B8C
:1009800000225A60019B01221A74019B00229A6086
:10099000019B0022DA6000BF02B0704700B583B04F
:1009A00001900091019B1B7C002B18D0019B1B68C0
:1009B000009A9A4208D8019B1A68009BD31A1946DC
:1009C000019800F034F822E0019B1A68009BD31ACA
:1009D00003F602031946019800F029F817E0019B7D
:1009E0001B68009A9A4208D3019B1B68009AD31A8D
:1009F0001946019800F01BF809E0019B1B68009A5A
:100A0000D31A03F602031946019800F010F800BF4C
:100A100003B05DF804FB82B001900B468DF8033003
:100A2000019B9DF803201A7400BF02B0704782B08A
:100A300001900091019B009A9A6000BF02B070473C
:100A400082B001900091019B009ADA6000BF02B071
:100A50007047000000B583B00190019A0349044833
:100A600003F0CAFD00BF03B05DF804FB80CE0008B0
:100A7000CC0D002000B583B001900091019B009A3D
:100A80001A60044803F0DBF9019B184603B05DF8D7
:100A900004FB00BFF80C002000B585B00190019B5D
:100AA0001B681846FFF714FE00230393039B0B2BD0
:100AB0001ED800230293029B052B15D8029B1A46D1
:100AC00092001A44D3001A4603990B461B015B1A85
:100AD0001B011344019A134404331846FFF7BEFD6B
:100AE000029B01330293E6E7039B01330393DDE7A7
:100AF00000BF05B05DF804FB00B585B00190002390
:100B00000393039B0B2B23D800230293029B052BFB
:100B10001AD8029B1A4692001A44D3001A46039927
:100B20000B461B015B1A1B011344019A1344043347
:100B30001846FFF715FD0346002B01D0012308E0FE
:100B4000029B01330293E1E7039B01330393D8E750
:100B50000023184605B05DF804FB86B003900291AF
:100B60000192029A13465B0013445B000593029BBB
:100B700003F00103002B05D1059A019BD31A05331D
:100B8000059303E0059A019B13440593059B1846C2
:100B900006B0704700B5ADF51B7D01AB18600023B2
:100BA000999300239893989B0B2B69D800239793D4
:100BB000979B052B60D801AB979A98991868FFF717
:100BC000CCFF0346DB00959301A8979B1A46920041
:100BD0001A44D3001A4698990B461B015B1A1B0155
:100BE00013440268134404331846FFF7E3FC94905F
:100BF00000239693969B072B0CD8949A969B1A44A5
:100C00009599969B0B44117802AAD154969B013377
:100C10009693EFE701A8979B1A4692001A44D300D7
:100C20001A4698990B461B015B1A1B011344026874
:100C3000134404331846FFF7F5FC03469393939A45
:100C4000999B9A4201D9939B999301A8979B1A4625
:100C500092001A44D3001A4698990B461B015B1A5E
:100C60001B0113440268134404331846FFF791FC38
:100C7000979B013397939BE7989B0133989392E757
:100C800001AB1B6818681023929392AA02AB194615
:100C9000FFF72FFD034683F00103DBB2002B03D0E7
:100CA0000C48FFF7D7FE10E00B4803F003F90346AA
:100CB0001946999B094AA2FB03239B090B440A335B
:100CC0001A4601AB1B68C3F8442B0DF51B7D5DF87C
:100CD00004FB00BF84CE0008F80C0020D34D621046
:100CE00000B587B00390029101920093019A029996
:100CF000039800F055F8034683F00103DBB2002BA4
:100D000001D0002348E0089A0099039800F048F8C1
:100D1000034683F00103DBB2002B01D000233BE04C
:100D2000029B0593059A009B9A4234D8019B049339
:100D3000049A089B9A422AD8049B1A4692001A44A5
:100D4000D3001A4605990B461B015B1A1B0113447D
:100D50001033039A1344083309991846FFF75EFDD0
:100D6000049B1A4692001A44D3001A4605990B4672
:100D70001B015B1A1B011344039A134404330A99A1
:100D80001846FFF74BFD049B01330493D0E7059B06
:100D900001330593C6E70123184607B05DF804FB4D
:100DA00084B0039002910192029B0B2B04D8019B0B
:100DB000052B01D8012300E00023184604B070473A
:100DC00000B583B00190084803F074F80246019B17
:100DD000D3F8443B9A42B4BF01230023DBB2184648
:100DE00003B05DF804FB00BFF80C002000B585B02F
:100DF00001900B468DF8033000230393039B0B2BCC
:100E000022D800230293029B052B19D8029B1A4675
:100E100092001A44D3001A4603990B461B015B1A31
:100E20001B0113441033019A134408339DF8032027
:100E300011461846FFF7EFFD029B01330293E2E7EC
:100E4000039B01330393D9E70123184605B05DF8EE
:100E500004FB00B585B001900B468DF803300023EC
:100E60000393039B0B2B21D800230293029B052B9A
:100E700018D8029B1A4692001A44D3001A460399C6
:100E80000B461B015B1A1B011344019A13440433E4
:100E90009DF8032011461846FFF7BDFD029B013364
:100EA0000293E3E7039B01330393DAE70123184638
:100EB00005B05DF804FB000030B585B003900291E9
:100EC0000192029A13469B0213445B0018460AF0F3
:100ED000D7FC4FF00002134B0AF076FE03460C4697
:100EE000184621460BF01EF80546019A13469B0250
:100EF00013445B0018460AF0C3FC4FF00002094B94
:100F00000AF062FE03460C46184621460BF00AF82A
:100F100003461A462946039800F006F80346184689
:100F200005B030BD0080764000B587B003900291D7
:100F3000019200230593059B0B2B33D800230493C8
:100F4000049B052B2AD8049B1A4692001A44D3000E
:100F50001A4605990B461B015B1A1B0113441033FB
:100F6000039A1344083302991846FFF717FD049BB0
:100F70001A4692001A44D3001A4605990B461B01E3
:100F80005B1A1B011344039A134404330199184656
:100F9000FFF704FD049B01330493D1E7059B013364
:100FA0000593C8E70123184607B05DF804FB00B5B8
:100FB00085B00190009100230393039B0B2B1FD856
:100FC00000230293029B052B16D8029B1A4692001F
:100FD0001A44D3001A4603990B461B015B1A1B01E6
:100FE0001344019A1344043300991846FFF728FD6F
:100FF000029B01330293E5E7039B01330393DCE794
:101000000123184605B05DF804FB000000B583B06D
:1010100001900091019B012B0CD1009B4FF6FF72B8
:10102000934207D1054802F05FFF054A054903488E
:1010300000F0EAFD00BF03B05DF804FBF80C0020EF
:10104000C80100201F3E000808B54FF6FF710120BF
:10105000FFF7DCFF08BD00B583B00190019800F0F8
:1010600063F9019B184603B05DF804FB00B583B03B
:1010700001900199034803F0BFFA00BF03B05DF887
:1010800004FB00BFCC0D002000B583B00190019A95
:101090000349044803F0B0FA00BF03B05DF804FB55
:1010A000D0CE0008CC0D002000B583B00023019302
:1010B000019B052B1AD800230093009B0B2B0ED805
:1010C000019A00990D48FFF748FD02460C4B134466
:1010D0001846FFF7CBFF009B01330093EDE709486B
:1010E000FFF7D2FF019B01330193E1E70348FFF7CC
:1010F000D3FC00BF03B05DF804FB00BFB40E0020BA
:10110000D4CE0008D8CE000800B585B0414B1B688E
:10111000042B6ED801A252F823F000BF3111000851
:1011200051110008731100089D110008C711000833
:101130003948FFF7B1FC2D2302932D23019305239A
:1011400000930B23002200213348FFF7C9FD51E033
:10115000872302935A230193052300930B23002234
:1011600000212D48FFF7BCFD64212B48FFF71FFF2E
:1011700040E000212848FFF71AFF00212648FFF72A
:1011800068FE5A23029387230193052300930B23C0
:10119000002200212048FFF7A3FD2BE000211E487C
:1011A000FFF724FE01211C48FFF753FE872302931B
:1011B0005A230193052300930B2300220021164894
:1011C000FFF78EFD16E001211348FFF70FFEB42351
:1011D0000293B4230193052300930B2300220021E3
:1011E0000D48FFF77DFD5A225A210B48FFF764FE98
:1011F00000E000BF074B1B680133064A1360054B34
:101200001B68042B02D9034B00221A6000BF05B0F3
:101210005DF804FBFC190020B40E002000B583B07B
:101220002C48FFF7CDFD034619462B48FFF79AF8E7
:101230002A48FFF762F80346002B14BF012300235E
:101240008DF807309DF8073019462548FFF78AF8D2
:101250009DF80730002B13D01E48FFF7B1FD034661
:1012600083F00103DBB2002B0AD01A48FFF744FCDD
:10127000034683F00103DBB2002B01D0012300E021
:101280000023002B04D0FFF73FFF1648FFF7FCFEBA
:101290001048FFF731FC0346002B16D00D48FFF72E
:1012A0008FFD034683F00103DBB2002B0DD001213B
:1012B0000D48FFF757F80748FFF76CFC0B48FFF79E
:1012C000E3FE00210848FFF74DF800BF03B05DF8CA
:1012D00004FB00BFB40E0020E80D00203C0E0020EF
:1012E000040E0020DCCE0008200E0020ECCE00080A
:1012F00008B5FFF7D9FE0948FFF7C6FE084B0122E3
:101300001A70074B1B78002B02D0FFF787FFF8E716
:101310000448FFF7B9FE0023184608BDF4CE0008C4
:10132000180D002004CF000882B00190019B1846E0
:1013300002B0704700B583B00190104A019B1A605B
:101340000F4A019BC3F8B0200E4A019BC3F8B4209A
:10135000019BC8331846FFF77EFE019800F07AF82B
:10136000019BB033184603F035F9019B184602F093
:1013700013FD019B184603B05DF804FBCCD50008B3
:10138000ECD500084CD60008A0F1B000D2E7A0F1DF
:10139000B400CFE700B583B001900198FFF7CAFF12
:1013A000019800F0C8FD019B184603B05DF804FBEE
:1013B000A0F1B000EEE7A0F1B400EBE700B583B018
:1013C00001900091019B012B2BD1009B4FF6FF72E6
:1013D000934226D14FF4165339223821134802F094
:1013E000C3FB134A1349114800F00EFC10211248A8
:1013F000FEF78FFF17211148FEF78BFF1E211048C3
:10140000FEF787FF2D210F48FEF75BFF0E48FEF722
:10141000C7FF0D490D48FFF741F90C490C48FFF78C
:1014200029FB00BF03B05DF804FB00BF1C0D0020CA
:10143000C801002035130008E80D0020040E00202C
:10144000200E00203C0E0020580E0020AC0E002084
:10145000B40E002082B00190019B184602B0704784
:1014600008B54FF6FF710120FFF7A8FF08BD000087
:1014700043692DE9F0410D46D907044628D5816816
:10148000334F8268334E836833483940B94202EAA9
:10149000060204BF0127A760B24203EA000304BFAB
:1014A0004FF48076A660834204BF4FF48030A06082
:1014B0002748814205D027498A4202D0264A9342D2
:1014C00006D1264B264A1B6852F825000121984771
:1014D000E2686369920708D09F0706D51F4B204A30
:1014E0001B6852F8250000219847A1696269636969
:1014F0008E070AD5900508D5190406D5174B184A4A
:101500001B6852F8250005219847A769666962693A
:1015100017F0040706F4806609D046B1120406D518
:101520000E4B0F4A1B6852F8250007219847636944
:101530005FB156B11B0408D5084B094A1B6852F825
:1015400025000221BDE8F0411847BDE8F08100BF49
:10155000030000040003000800000310081A002024
:10156000001A002000210148FFF782BF00640040FC
:10157000FFF7F8BFFFF7F6BF01210148FFF778BF7B
:1015800000680040FFF7F8BFFFF7F6BF102300F038
:1015900009B8202300F006B8302300F003B8402338
:1015A00000F000B8EFF30880042172460A4201D02F
:1015B000EFF309809C46244B196802680A600431E5
:1015C00042680A60043182680A600431C2680A60B5
:1015D0000431F0C147460F6004314F460F600431BB
:1015E00057460F6004315F460F60043102690A609C
:1015F000083142690A60043182690A600431C269B3
:101600000A600431034620334FF40076324200D0A2
:10161000043375461026354200D148330C46103C41
:101620002360EFF309820A600431EFF308820A6055
:10163000043172460A600431EFF314820A60604696
:10164000014900F0DDF9FEE7D4D0000830B50368A9
:1016500091FAA1F4B4FA84F491FAA1F10325B1FA54
:1016600081F1640005FA04F4490023EA040302FA54
:1016700001F11943016030BD00B5002289B0374B3C
:10168000072867D8DFE800F004121E2A36424E5AB7
:1016900000921A6B324842F001021A631B6B03F08E
:1016A00001030093009B09B05DF804FB01921A6BE3
:1016B0002C4842F002021A631B6B03F002030193F1
:1016C000019BF0E702921A6B274842F004021A636A
:1016D0001B6B03F004030293029BE4E703921A6B73
:1016E000224842F008021A631B6B03F008030393BD
:1016F000039BD8E704921A6B1D4842F010021A634C
:101700001B6B03F010030493049BCCE705921A6B48
:10171000184842F020021A631B6B03F02003059364
:10172000059BC0E706921A6B134842F040021A6309
:101730001B6B03F040030693069BB4E707921A6BFA
:101740000E4842F080021A631B6B03F0800307937C
:10175000079BA8E70A4803F0A3F800BF003802403F
:10176000000002400004024000080240000C024059
:10177000001002400014024000180240001C024009
:1017800048D00008431C10B5044604D1762206490F
:10179000064802F051FF002100F016FD04F00F048E
:1017A0000120A04010BD00BF69D00008BBD00008D8
:1017B00070B504464B1C0E46218216D0C1F30310AF
:1017C000FFF75AFF05463046FFF7DCFF238A074A3A
:1017D000656103F00F03206052F82330A36105F127
:1017E000100318356360A560E56070BD1CD4000867
:1017F000B0F9100000F07ABD0A4619B98169406954
:10180000FFF724BF0122F9E708B502F0F5F8002040
:1018100008BD000008B50A4B1B684BB102F0EAFD99
:1018200002F0D2FD4FF47A7200230AF09BFB08BD50
:1018300002F042F94FF47A73B0FBF3F008BD00BF39
:101840000C1A002000B589B002F012FF102101A887
:1018500002F098FB114E124D0424039B019A1A606A
:10186000304603F095F8019B049A1B041360304640
:1018700003F08EF8013CF0D10424039B019A1A6016
:10188000284603F085F8019B049A1B041360284640
:1018900003F07EF8013CF0D1DEE700BFF049020022
:1018A000801A060010B5044602F0E2FE204604F05D
:1018B00047FD21460246022000F046FABDE81040EE
:1018C00002F0ECBE10B5A2B00B460246842101A87E
:1018D00008F070F88328044605D9052205490DF162
:1018E000830004F09FF8002C02DD01A8FFF7DAFF67
:1018F00022B010BDCED000080FB407B504A951F82E
:10190000040B0191FFF7DEFF03B05DF804EB04B0B8
:1019100070470000F0B52C4C2C4F85B000252646B2
:1019200054F82520294638460135FFF7E5FF0D2DEF
:10193000F6D1A36C0293636C0193236C009304F1C2
:101940003401234C23480EC9FFF7D6FF21682248F3
:10195000FFF7D2FFE16AA26AA36AA06A256BE76B70
:101960000297000C01950090C3F30723D2B21B48E5
:10197000FFF7C2FFA36A1D0603D5616B1848FFF786
:10198000BBFFA36A180403D5A16B1648FFF7B4FF89
:10199000F36C190712D51448FFF7AEFF336DDA0761
:1019A0000FD51248FFF7A8FFF36C5B074CBF104838
:1019B000104805B0BDE8F040FFF79EBF0E48FFF7A6
:1019C0009BFF0E48EEE700BF781B002068D100089F
:1019D00000ED00E076D10008C5D10008D3D10008A1
:1019E00022D2000830D200083ED200084DD20008B2
:1019F0007DD2000889D200086DD200085AD20008B2
:101A000013B504461548FFF777FF302C17D0402C4C
:101A10001AD0202C1DD11248124CFFF76DFF12482E
:101A2000FFF76AFFFFF776FF1048FFF765FF002317
:101A30000F4A0093D26B0F49204602F051FF0E4827
:101A40000E4CFFF759FFEAE70D480E4CFFF754FF25
:101A5000E5E70D480D4CFFF74FFFE0E7D8D0000851
:101A600001D100083E01FF802ED1000839D10008C5
:101A7000781B002058D1000810D100083F01FF80DA
:101A800019D100084001FF8024D100083D01FF80EA
:101A900008B501F05FFF00F027FF01F04DFF01F0F6
:101AA00059FF024B01221A6008BD00BF0C1A00202A
:101AB00000207047036801221B6900211847036852
:101AC00000221B691146184703681B691847036801
:101AD0009B69184703689B6A184700290CBF6FF081
:101AE0001800002070470120704711207047704790
:101AF0006FF01C0070476FF01500704701207047B1
:101B00000020704770470000F8B5074E15460C4698
:101B10008F18BC4205D014F8011B304600F0AAFE15
:101B2000F7E72846F8BD00BFCC1B002038B58DB2C2
:101B300015F0010405D0084800F036FC041C18BF5D
:101B40000124EB0605D5044800F044FC08B144F03C
:101B50001004204638BD00BFCC1B002010B5044641
:101B600003F0D0FE204610BD10B50C462AB1044843
:101B700000F06EFE2070012010BD104610BD00BFA9
:101B8000CC1B002038B51D46074B0360074B1B6874
:101B9000044633B9064800F08BFC2946044800F09F
:101BA0004FFC204638BD00BF08D30008341A00207F
:101BB000CC1B0020002070470020704708B5012092
:101BC00000F096F90C4A136810B51844EFF3088139
:101BD000884205D3094B0C221A604FF0FF3010BD2C
:101BE00007490C6824B10749096821448842F1D2A9
:101BF0001060184610BD00BFCC020020041E00205B
:101C00002C1A0020301A0020012070470120704754
:101C1000002104F0FBB87047704708B5FFF7FBFFE1
:101C200008BD08B5FFF7F8FF08BD000008B5037848
:101C300003F00302012A0BD02AB140F28C5205496D
:101C4000054802F0F9FC43F002030370012008BDCF
:101C5000002008BD50D300089FD3000808B50378C2
:101C600003F00302022A05D040F2945204490548C9
:101C700002F0E2FC23F0030343F00103037008BD0C
:101C800050D30008C5D300083F2870B504462FDCA8
:101C9000184D55F820305A1C13D1022811DCFFF7DB
:101CA0008BFF034658B92046FFF784FF034630B93F
:101CB000114E3378BFF35B8FDB0704D50F4B45F82C
:101CC0002430184670BD3046FFF7B0FF0028F5D02D
:101CD0004FF41653392238210848FFF753FF304696
:101CE000FFF7BCFF064A07490448FFF78DFFE5E709
:101CF0000023E6E7CC010020101A0020281A00205B
:101D0000C8010020051B000838B50546FFF7BCFFD9
:101D10000B4B002443F8254030B902F033FF092370
:101D200003604FF0FF3038BD03685B699847051EBC
:101D300004DA02F027FF6D420560F2E7204638BD65
:101D4000CC010020FFF7E0BF38B50C461546FFF781
:101D50009BFF38B902F016FF092303604FF0FF34F0
:101D6000204638BD03682146DB682A469847041E92
:101D7000F6DA02F007FF64420460EFE708B5131ECD
:101D800006DA02F0FFFE162303604FF0FF3008BDB5
:101D900004D0FFF7D9FF40EAE07008BD184608BD3F
:101DA00038B50C461546FFF76FFF38B902F0EAFE6A
:101DB000092303604FF0FF34204638BD03682146F5
:101DC0009B682A469847041EF6DA02F0DBFE64425E
:101DD0000460EFE7002A08B503DBBDE80840FFF721
:101DE000DFBF02F0CFFE162303604FF0FF3008BDC7
:101DF00010B5FFF749FF044628B902F0C3FE0923D6
:101E00000360204610BD0368DB699847041EF8DABA
:101E100002F0B8FE644204600024F2E71FB5042219
:101E20000C4640230DEB020101900DF109008DF8E5
:101E3000083003F0F7FD214602A803F033F9044609
:101E400030B10198FFF7D4FF10B12046FFF7E0FE54
:101E5000204604B010BDFFF7CBBF38B50C46154681
:101E6000FFF712FF38B902F08DFE092303604FF02F
:101E7000FF34204638BD036821461B692A4698472F
:101E8000041EF6DA02F07EFE64420460EFE7FFF71C
:101E9000E4BF10B5FFF7F8FE30B902F073FE092376
:101EA00003604FF0FF3010BD03689B699847041E24
:101EB00004DA02F067FE64420460F2E7002010BD1D
:101EC0000A4C08B523680546986802F0A9FF236804
:101ED000D86802F0A5FF0120FFF7DBFF0220FFF723
:101EE000D8FF0DB1FFF7AEFCFEE700BFD80200201F
:101EF00008B5FFF7E5FF38B50D46FFF7C5FE044608
:101F000030B902F03FFE092303604FF0FF3038BDC7
:101F10000368DB699847002814BF4FF400534FF45F
:101F200000436B60236820469B6A98472861002025
:101F300038BDFFF7E0BF03F0E5BC000008B503467D
:101F400053F8082B02B9036002689A4204D0682251
:101F50000249034802F070FB184608BD95D20008FC
:101F6000ECD2000810B504460948FFF7E7FF00234C
:101F7000084A194652F82300A04208BF42F823102D
:101F80000133402BF6D10248FFF7D8FF10BD00BF48
:101F9000181A0020CC01002010B50F48FFF7CEFF23
:101FA0000E4B032453F824206AB10134402CF9D19C
:101FB00002F0E8FD182303600748FFF7BFFF4FF06A
:101FC000FF34204610BD4FF0FF32034843F8242071
:101FD000FFF7B4FFF5E700BF181A0020CC0100207E
:101FE00010B50446FFF7D8FF0028A4BF014B43F803
:101FF000204010BDCC01002070B506460C46FFF70E
:10200000EFFF054690B12146FFF708FF044630B9BF
:10201000074B53F82520964203D143F8250020466C
:1020200070BD02F0AFFD09230360F8E70446F6E750
:10203000CC0100200EB42DE9F04185B00546FFF734
:10204000ABFF041E13DB0023294602A8019302F014
:10205000E7F902A802F034FA1B4D064668B902F00F
:1020600091FD1323036045F824604FF0FF342046B0
:1020700005B0BDE8F04103B0704702A802F00EFAC7
:10208000074602A837B102F012FA0190019B45F809
:102090002430ECE702F0F9F906460028DFD00368A7
:1020A00002A8D3F8088002F0E5F90B9B024601A9CB
:1020B0003046C04706460028E8D002F063FD76426D
:1020C000066045F82470D0E7CC01002073B50E46B9
:1020D0001849054603F0B8FF044620B9FFF7D4FDC0
:1020E000204602B070BD1449284603F0ADFF20B968
:1020F0000120FFF7C9FD0124F2E71049284603F04B
:10210000A3FF20B90220FFF7BFFD0224E8E72B78E8
:10211000402B07D10422691C0DEB020003F082FC66
:10212000019CDDE726F400412846FFF783FF0446C3
:10213000D6E700BF0CD4000813D4000804D400086C
:1021400070477047074B08499A68084810B5043A29
:1021500052F8044F41F8044F8142F9D14FF0005238
:102160009A6010BD00ED00E0FCFFFF1FC0010020E1
:1021700008B5FFF7E7FFFFF78BFCFFF7E2FF08BDAD
:1021800008B5FFF7DDFFBDE80840FFF7B1B830B58F
:10219000C36891FAA1F4B4FA84F491FAA1F1032589
:1021A000B1FA81F1640005FA04F4490023EA04035A
:1021B00002FA01F11943C16030BD012A02D0022A9E
:1021C00018BF0022FFF7E3BF2DE9F0410E46411C86
:1021D00004D1424942483E2202F02EFA00F00F0894
:1021E000404BC0F3031053F82840FFF745FA06F0C0
:1021F0000705836894FAA4F1B1FA81F194FAA4F284
:102200000327490007FA01F1B2FA82F223EA010337
:102210005200022101FA02F213438360BD4258D8F2
:10222000DFE805F01D1D021DB8F1070FC6F30327F7
:1022300039D9426A230A93FAA3F1B1FA81F193FAE8
:10224000A3F34FF00F0EB3FA83F389000EFA01F1F6
:102250009B0022EA010207FA03F313434362026878
:1022600094FAA4F1B1FA81F194FAA4F30327B3FA32
:1022700083F3490007FA01F15B0005FA03F322EA50
:102280000102013D1343012D036005D84368320765
:102290004CBF2343A3434360C6F301122146BDE86C
:1022A000F041FFF78ABF026A94FAA4F3B3FA83F30A
:1022B00094FAA4F14FF00F0EB1FA81F19B000EFADF
:1022C00003F3890022EA030207FA01F313430362CE
:1022D000C5E76722014904487EE700BF5CD40008D7
:1022E000BBD000081CD40008EFD70008431C70B511
:1022F0000D4604D188221F491F4802F09DF900F0C5
:102300000F021E4BC0F3031053F82240FFF7B4F93D
:10231000066894FAA4F1B1FA81F394FAA4F2590090
:102320000323B2FA82F28B4033405200D340013B88
:10233000012B05D8EB1E022B436809D823434360C9
:10234000032D08D101222146BDE87040FFF735BFBB
:1023500023EA04034360012DF4D0052D01D0022DA2
:1023600001D10222EFE721460022BDE87040FFF7CD
:102370000EBF00BF5CD40008BBD000081CD400080E
:102380000FB407B5064B07491B6805AAD868019228
:1023900007F08AFA03B05DF804EB04B0704700BFA1
:1023A000D8020020ACD400084368094A9B0182B0DF
:1023B000D3581A68120706D5002201921A680192B2
:1023C0005A680192019A1868C0F3401002B0704731
:1023D000181C00204368034A9B01D3581868C0F3B7
:1023E000C0107047181C002042681449920110B4B4
:1023F00004685450531882685A60C2689A6002692F
:10240000DA6042691A61026A9A610022DA84DA614A
:102410009A84DA859A85B0F91A20013206D1082209
:102420005A6118465DF8044B01F079B9B0F91820EB
:1024300001320CBF04220C22F2E700BF181C00205E
:1024400010B581600C46FFF7CFFF28B12146034845
:10245000BDE81040FFF794BF10BD00BFACD400082A
:10246000124B984217D0A3F54C43984215D003F570
:102470008063984213D003F58063984211D003F52E
:10248000806398420FD003F5444398420CBF052067
:102490004FF0FF3070470020704701207047022046
:1024A0007047032070470420704700BF00100140B0
:1024B000F0B50E4687B004465B493046154601F03C
:1024C000ADFD5A490746284601F0A8FD01463846A9
:1024D00001F080FD2060013004D1554955483D226E
:1024E00002F0AAF8382E0AD0392D08D04E493820EB
:1024F00001F094FD874224D14F4802F0D1F9012721
:102500004E4B206898424FF000031CD100934C4B77
:102510005A6C42F010025A645B6C03F01003009393
:10252000009B484B98422BD100230593444B5A6C97
:1025300042F020025A645B6C03F020030593059B74
:102540001EE00027DCE7404A90420BD101933C4B50
:102550001A6C42F400321A641B6C03F400330193CA
:10256000019BDEE7394A904213D10293344B1A6C37
:1025700042F480221A641B6C03F480230293029BB2
:10258000FFF76EFF0028606021DAA4222849304856
:10259000A6E7304A90420BD10393294B1A6C42F4C0
:1025A00000221A641B6C03F400230393039BE7E7E8
:1025B000294A9042B5D10493214B1A6C42F48012FF
:1025C0001A641B6C03F480130493049BD8E7164928
:1025D000304601F0DBFC1549284601F0D7FC721C9F
:1025E00003D001213046FFF781FE6B1C03D001218F
:1025F0002846FFF77BFE4FF41653A3600023E360E9
:10260000236163612362268365832046FFF7ECFE26
:102610003FB1124B124801221A6021464C2203F0AE
:1026200001FA07B0F0BD00BFB8CF00081CCF00080A
:10263000D6D400082AD5000846D50008001001406D
:1026400000380240001401400044004000480040AF
:102650007BD50008004C004000500040341A002098
:10266000CC1B0020002808DB4209012300F01F00DA
:1026700003FA00F0014B43F82200704700E100E04C
:1026800000280DDB4309012200F01F0002FA00F0D0
:102690002033044A42F82300BFF34F8FBFF36F8FFC
:1026A000704700BF00E100E0F7B5FFF7D9FE071E55
:1026B00026DB144E56F8270010B3134CBD016359A6
:1026C0001A68120606D5DB68190603D50F4B0121DF
:1026D0001B68984763591A68920608D5DB68980604
:1026E00005D50A4B56F827001B6800219847635907
:1026F0001A68110704D55A69D20744BF5B68019371
:1027000003B0F0BD3C1A0020181C0020381A00202D
:102710000148FFF7C9BF00BF001401400148FFF79F
:10272000C3BF00BF005000400148FFF7BDBF00BF5E
:10273000004C00400148FFF7B7BF00BF0048004011
:102740000148FFF7B1BF00BF004400400148FFF758
:10275000ABBF00BF00100140034B19604168034B41
:1027600043F82120704700BF381A00203C1A00208F
:1027700030B490E818002C48834233D00AD8A0F532
:102780000060834228D000F58060834227D0002378
:1027900018460FE0254883420AD000F58060834246
:1027A00023D0A0F544408342F1D1214B352001E0F4
:1027B000204B2520204DA401FAB1C9B92959CA6876
:1027C00042F02002CA601D4A00F11001926830BC3C
:1027D00042F82130FFF746BF194B2620EAE7194B94
:1027E0002720E7E7184B3420E4E7184B4720E1E7C0
:1027F0002959CA6842F08002E4E72B59DA6849B9DE
:1028000022F02002DA60DB6813F0800F09D130BCBF
:10281000FFF736BF22F08002DA60DB6813F0200F8A
:10282000F4E730BC704700BF004C0040001001408E
:102830001D2700084D270008181C002000ED00E0AF
:10284000412700083527000829270008112700081C
:1028500038B5446805462846FFF7A6FD0028FAD09B
:10286000A401034B1B595868C0F3080038BD00BFD2
:10287000181C002070B5456806460C463046FFF728
:10288000A9FD0028FAD0AD01024B5B59C4F308043E
:102890005C6070BD181C0020DFF830D0002103E020
:1028A0000B4B5B58435004310A480B4B42189A4279
:1028B000F6D30A4A02E0002342F8043B084B9A424E
:1028C000F9D300F05BFFFDF79DFC7047000002208C
:1028D000CCDE0008C8010020A80C0020A80C0020B5
:1028E000081E0020FEE7704708B50B4B1A6842F43B
:1028F00000721A601A6842F480621A601A6842F420
:1029000080721A60032000F009F80F20FEF77CFFA8
:10291000FFF7E9FF002008BD003C0240074AD368EA
:1029200023F4E0631B041B0C43F0BF63000243F479
:10293000003300F4E0600343D360704700ED00E033
:1029400037B500230193184B184C1A6C42F0805293
:102950001A641B6C03F080530193019B144B0122FA
:102960001A60FEF757FF05466368DA030BD5114B73
:102970000E4C01221A60FEF74DFF054663689B036B
:102980000AD5002006E0FEF745FF401BB0F57A7F30
:10299000EAD9032003B030BDFEF73CFF401BB0F581
:1029A0007A7FEBD9F5E700BF0038024000700040A5
:1029B00040000E4244000E422DE9F0410D4604460F
:1029C00010B90120BDE8F081444B1A6802F00F02F3
:1029D0008A4228D321688F072DD4C80740D43F4BA3
:1029E0001A6802F00F02954266D3226851076CD430
:1029F000130707D53A4A2169936823F4604343EAF1
:102A0000C103936000F0B8FA354B364A9B68C3F3B4
:102A10000313D35CD840344B18600F20FEF7F4FE4C
:102A20000020BDE8F081CAB21A701B6803F00F03E2
:102A30009942C6D1CEE72A4B11F0040F1EBF9A6807
:102A400042F4E0529A600E0742BF9A6842F4604234
:102A50009A609A68A06822F0F00202439A60BCE78C
:102A600062681F4B012A1DD11B6813F4003FA8D0D8
:102A70001B4EB36823F003031343B360FEF7CAFE93
:102A800041F288380746B368626803F00C03B3EB81
:102A9000820FA4D0FEF7BEFEC01B4045F3D9032031
:102AA000BDE8F081911E01291B6802D813F0007F58
:102AB000DDE713F0020FDAE7EAB21A701B6803F0E1
:102AC0000F039D427FF47DAF8FE70549E0688B6877
:102AD00023F4E05303438B608AE700BF003C0240CD
:102AE00000380240A1D50008D0020020044B054A5E
:102AF0009B68C3F38223D35C034A1068D8407047B5
:102B000000380240B1D50008D0020020044B054A2D
:102B10009B68C3F34233D35C034A1068D8407047C4
:102B200000380240B1D50008D00200200F23036016
:102B30000B4B9A6802F0030242609A6802F0F002BE
:102B400082609A6802F4E052C2609B68DB0803F47A
:102B5000E0530361034B1B6803F00F030B607047E6
:102B600000380240003C024003682DE9F74313F0AF
:102B7000010604460BD0AA49866BD1F88C2022F0BE
:102B8000C0623243B6FA86F6C1F88C2076099D07FA
:102B90000BD5A348E16BD0F88C2022F0C0520A4339
:102BA0000029C0F88C2008BF012613F0040512D0BC
:102BB0009B49256BD1F88C20B5F5801F22F440127B
:102BC00042EA050218BFB5FA85F5C1F88C2012BF9C
:102BD0006D090025012618070FD59148616BD0F8C3
:102BE0008C2022F440020A43B1F5800FC0F88C20FB
:102BF00000F00981002908BF0125990633D500237B
:102C00000193874B874F1A6C42F080521A641B6CF9
:102C100003F080530193019B3B6843F480733B6056
:102C2000FEF7F8FD80463B68DA0540F1EE807C4F08
:102C30003B6F13F4407340F0FB80236C03F440724D
:102C4000B2F5407F764A40F01681916823F07040DB
:102C500021F4F81120F4407001439160116FC3F327
:102C60000B030B4313672368D90642BF6E4B94F8DE
:102C700058201A6023681A0608D56949E06CD1F813
:102C8000942022F440020243C1F894205F0608D544
:102C90006349A06CD1F8942022F080620243C1F80D
:102CA0009420D8050CD55E48616DD0F8942022F0B0
:102CB00000620A43B1F1006FC0F8942008BF0125FB
:102CC000990508D55649606CD1F8942022F08052BD
:102CD0000243C1F894205A0500F1D180012E40F042
:102CE000DC80524E4E4F00233360FEF793FD80464A
:102CF0003B681B0100F125812268D00701D5A36B39
:102D00001BB1910715D5E36B9BB94549D1F88430C8
:102D1000D1F8840003F4403300F07060034360682E
:102D20000343A06843EA8013606943EA0073C1F873
:102D30008430530703D5236BB3F5801F05D01707E5
:102D400020D5636BB3F5800F1CD13549D1F88430A1
:102D5000D1F8840003F4403300F0E040034360689E
:102D60000343A06843EA8013206943EA0063C1F883
:102D70008430D1F88C00A36A20F01F00013B03438C
:102D8000C1F88C3050051BD5236DB3F1005F17D10E
:102D900023486768D0F88410D0F8843003F0E0430B
:102DA0003B43A768C1F30141013143EA871343EA7A
:102DB0004163E1684908013943EA0143C0F88430BE
:102DC000110511D52369A2681B0643EA82136268C4
:102DD0001343626943EA0273E2685208013A43EA24
:102DE00002430F4AC2F8843001233360FEF712FD1C
:102DF0000B4E074633681A0153D4FEF70BFDC01B78
:102E00000228F7D908E00126F7E6FEF703FDA0EB5C
:102E1000080002287FF607AF032003B0BDE8F08367
:102E20000038024000700040E0114742680047420D
:102E3000226C02F4407293423FF4FFAE3B6F4B4A68
:102E40000121116023F44073002111603B673B6F47
:102E5000DB077FF5F2AEFEF7DDFC41F288398046F4
:102E60003B6F98073FF5E9AEFEF7D4FCA0EB0800F6
:102E70004845F5D9D0E7916821F4F811EDE63C48D2
:102E8000216DD0F8942022F000520A43B1F1005F86
:102E9000C0F894207FF422AF23E7B3F5006F3FF42E
:102EA00020AF012D4BD1334D314E00232B60FEF767
:102EB000B1FC074633689B004BD421684E0701D50F
:102EC000236B1BB108071AD5636BC3B9284AA069E5
:102ED000D2F8883003F440330343E06943EA8013B7
:102EE000606A43EA0063C2F88830D2F88C30E06A46
:102EF00023F4F853013843EA0023C2F88C30CA05A2
:102F000014D5636DB3F1006F10D11949A269D1F8DE
:102F1000883003F070631343E26943EA8213226A44
:102F20005208013A43EA0243C1F8883001232B607A
:102F3000FEF770FC0E4C054623689B000FD5002061
:102F40006BE7FEF767FCA0EB080002287FF6D0AE27
:102F500062E7FEF75FFCC01B0228ABD95CE7FEF717
:102F600059FC401B0228E7D956E700BF400E4742F4
:102F70000038024070004742204908B58B6803F0D2
:102F80000C03082B07D00C2B20D01D4A1D48042B06
:102F900018BF104608BD4A684B68496813F480039F
:102FA00014BF18481648C1F3881118BF002302F057
:102FB0003F02A1FB000108F0D5FF104B5B68C3F393
:102FC000014301335B00B0FBF3F008BD4A684B6876
:102FD000496813F4800314BF0A480948C1F38811F3
:102FE00018BF002302F03F02A1FB000108F0BAFF66
:102FF000024B5B68C3F30273E5E700BF0038024091
:103000000024F40000127A0003682DE9F341DF0781
:10301000044610D423689E0767D423681A0700F17A
:10302000B28023685B0700F1D080A269002A40F0DB
:10303000398100201EE0974B9A6802F00C02042AA6
:1030400010D09A6802F00C02082A02D15B685D0277
:1030500008D4904B9A6802F00C020C2A0DD15A68E1
:1030600050020AD58B4B1B689903D3D56368002B9C
:10307000D0D1012002B0BDE8F0816268B2F5803F96
:1030800011D11A6842F480321A60FEF7C3FB814DF9
:1030900006462B689A03BDD4FEF7BCFB801B642850
:1030A000F7D90320E6E77B4DB2F5A02F2B6807D1B7
:1030B00043F480232B602B6843F480332B60E4E7D8
:1030C00023F480332B602B6823F480232B60002AA9
:1030D000DBD1FEF79FFB06462B689B039AD5FEF7D4
:1030E00099FB801B6428F7D9DBE76A4B9A6812F0DA
:1030F0000C0F10D09A6802F00C02082A02D15B680B
:103100005F0208D5634A936803F00C030C2B11D1BE
:1031100053685E020ED45F4B1A68950702D5E268C9
:10312000012AA6D11A68216922F0F80242EAC102F6
:103130001A6072E7E268584BB2B101221A60FEF7DA
:1031400069FB544D06462B68980707D52B68226902
:1031500023F0F80343EAC2032B605EE7FEF75AFB55
:10316000801B0228EFD99CE71A60FEF753FB494DFC
:1031700006462B6899077FF550AFFEF74BFB801B87
:103180000228F6D98DE76269444B7AB101221A60B0
:10319000FEF740FB3F4D06466B6F9F073FF541AF83
:1031A000FEF738FB801B0228F6D97AE71A60FEF793
:1031B00031FB384D06466B6F98077FF532AFFEF74F
:1031C00029FB801B0228F6D96BE7324B1A6C12F0F0
:1031D000805228D101921A6C42F080521A641B6C02
:1031E00003F080530193019B01262D4D2B68D905D7
:1031F0001BD5A368274D012B27D12B6F43F001036B
:103200002B67FEF707FB234D074641F288382B6FEB
:103210009B0739D5002E3FF408AF1E4A136C23F0EC
:103220008053136401E70026DFE72B6843F48073C3
:103230002B60FEF7EFFA07462B68DA05D9D4FEF7C4
:10324000E9FAC01B0228F7D92BE7052B04D12B6F15
:1032500043F004032B67D0E72A6F22F001022A67AC
:103260002A6F22F004022A67002BCAD1FEF7D2FA95
:1032700041F2883807462B6F9807CBD5FEF7CAFA7C
:10328000C01B4045F7D90CE7FEF7C4FAC01B404508
:10329000BDD906E70038024000004742800E474291
:1032A00000700040234DAB6803F00C03082B3FF483
:1032B000E0AE214E0023022A33602DD1FEF7AAFA98
:1032C00007462B68990121D4226AE3691343626A95
:1032D00043EA8213E26A43EA0263226B43EA02731F
:1032E000A26A144C5208013A43EA02436B6001237C
:1032F0003360FEF78FFA054623689A013FF599AED1
:10330000FEF788FA401B0228F6D9CAE6FEF782FAD1
:10331000C01B0228D5D9C4E6FEF77CFA04462B6808
:103320009B017FF586AEFEF775FA001B0228F6D9E1
:10333000B7E600BF00380240600047427047000017
:103340002E4A0368904212D0B0F1804F0FD0A2F500
:103350007C4290420BD002F58062904207D002F589
:103360008062904203D002F5784290421DD14A68B3
:1033700023F070031343214A904204D1CA6823F416
:103380004073134328E0B0F1804FF7D01C4A9042BD
:10339000F4D002F580629042F0D002F58062904253
:1033A000ECD002F578429042E8D0164A9042E5D03F
:1033B00002F580629042E1D002F580629042DDD059
:1033C000A2F598329042D9D002F580629042D5D0D1
:1033D00002F580629042D1D003608B68C3620B68B3
:1033E0008362064B984206D003F58063984202D070
:1033F0000123436170470B690363F9E70000014053
:10340000000400400040014010B50446A0B190F80F
:10341000393003F0FF021BB980F83820FFF78EFF28
:10342000022384F839302068211DFFF789FF01232A
:1034300084F83930002010BD012010BD036A10B59A
:1034400001248C4023EA04030362036A8A401A437E
:10345000026210BD10B5044600220068FFF7EEFFBF
:103460002368124A934203D002F5806293420DD141
:10347000196A41F21112114208D1196A40F244420C
:10348000114202BF5A6C22F400425A64196A41F296
:103490001112114208D1196A40F24442114203D17B
:1034A0001A6822F001021A60002010BD00000140DD
:1034B00010B5044601220068FFF7C0FF2368084AE0
:1034C000934203D002F58062934203D15A6C42F4D6
:1034D00000425A641A6842F001021A60002010BDCE
:1034E00000000140FFF7E4BF2DE9F0470668C2681D
:1034F0003369C16923F4405313433361044683683D
:103500000069F2680343606922F41642034322F023
:103510000C020B431343F3607369A26923F44073F5
:103520001343B1F5004F73617A4B7CD19E4203D0B7
:1035300003F580639E4244D1FFF7E8FA192505FBA5
:1035400000F360684FF064094000B3FBF0F3B3FB95
:10355000F9F34FEA0318FFF7D9FA636868435B0091
:10356000B0FBF3F7FFF7D2FA636868435B00B0FB88
:10357000F3F3B3FBF9F309FB1373DB003233B3FB53
:10358000F9F35B0003F4F877FFF7C0FA6268684369
:103590005200B0FBF2FAFFF7B9FA636868435B00C8
:1035A000B0FBF3F3B3FBF9F309FB13A3DB003233F6
:1035B000B3FBF9F303F0070343443B44B360BDE8B6
:1035C000F087FFF793FA192505FB00F360684FF0C9
:1035D00064094000B3FBF0F3B3FBF9F34FEA0318BF
:1035E000FFF784FA636868435B00B0FBF3F7FFF70B
:1035F0007DFA636868435B00B0FBF3F3B3FBF9F358
:1036000009FB1373DB003233B3FBF9F35B0003F404
:10361000F877FFF76BFA626868435200B0FBF2FA82
:10362000FFF764FAB9E79E4202D03B4B9E4240D17D
:10363000FFF76CFA676819254FF0640905FB00F382
:10364000BF00B3FBF7F3B3FBF9F31F01FFF75EFA1B
:10365000636868439B00B0FBF3F8FFF757FA6368B1
:1036600068439B00B0FBF3F3B3FBF9F309FB13834F
:103670001B013233B3FBF9F303F0F008FFF746FA0E
:10368000626868439200B0FBF2FAFFF73FFA6368A2
:1036900068439B00B0FBF3F3B3FBF9F309FB13A3FF
:1036A0001B013233B3FBF9F303F00F0343EA0803C2
:1036B00083E7FFF71BFA676819254FF0640905FBDC
:1036C00000F3BF00B3FBF7F3B3FBF9F31F01FFF700
:1036D0000DFA636868439B00B0FBF3F8FFF706FA46
:1036E000636868439B00B0FBF3F3B3FBF9F309FB9A
:1036F00013831B013233B3FBF9F303F0F008FFF738
:10370000F5F9626868439200B0FBF2FAFFF7EEF950
:10371000BDE700BF0010014000140140704710B524
:10372000044640B390F8393003F0FF021BB980F82B
:103730003820FFF7F3FF2268242384F83930D36858
:1037400023F40053D3602046FFF7CEFE23681A69A6
:1037500022F490421A615A6922F02A025A61DA6808
:1037600042F40052DA6000202023E06384F839300C
:1037700084F83A3010BD012010BD00000F49D1F887
:10378000883043F47003C1F888300D4B1A6800206C
:1037900042F001021A6098601A6822F0847222F4E2
:1037A00080321A60074A5A601A6822F480221A602E
:1037B000D8604FF000638B60704700BF00ED00E001
:1037C0000038024010300024F0B5ADB02C4B002181
:1037D00001911A6C42F080521A641B6C03F0805302
:1037E0000193019B274B02911A6842F440421A60F0
:1037F0001B6803F440430293029B012308930028B3
:1038000039D14FF4803309934FF480030F934FF471
:10381000B47302250826119308A807230E95109665
:10382000129513931495FFF7EFFB38BBFFF788F859
:10383000074618BB4FF4C0731C934FF48073159365
:1038400015A84FF000632A931B961D96FFF78CF97D
:103850000F2303934FF4A053069305214FF4805395
:1038600003A8049505970793FFF7A6F8B0FA80F030
:1038700040092DB0F0BD4FF4A023C4E70020F8E7C5
:10388000003802400070004070B5ACB00024284BF6
:1038900001941A6C42F080521A641B6C03F080533E
:1038A0000193019B234B02941A6842F440421A6030
:1038B0001B68099403F440430293029B0F94032373
:1038C000089301230B9310230C9310934FF4B473BC
:1038D000119307230225139308A806230E9512952A
:1038E0001493FFF791FB064600BB08231B931D931F
:1038F0004FF48073C022159315A84FF000631C92FB
:103900002A93FFF731F90F2303934FF4A053069343
:1039100005214FF4805303A8049505960793FFF7FC
:103920004BF8B0FA80F040092CB070BD2046FBE7A0
:10393000003802400070004008B50120FFF744FF46
:1039400028B9FFF7A1FF10B9014800F0A9FF08BD91
:103950008DD50008174A1849936803F00C03042B0F
:1039600010B50DD0082B0DD0144B0B60114B144A21
:103970009B68C3F30313D25C0B68D3400B6010BD8C
:10398000104BF2E75468506852686302C2F3881221
:1039900000F03F004CBF0B4B084BB3FBF0F353431D
:1039A000044A5268C2F3014201325200B3FBF2F3FF
:1039B000DBE700BF00380240D00200200024F40002
:1039C000A1D5000800127A00074B084A13601A6953
:1039D000910707D5DA68920704D56FF002021A61E1
:1039E00000F00CBD704700BF000C0040A41D00207B
:1039F00000487047BCD5000830B589B001A903A8BC
:103A0000FFF794F8FFF772F8002302931E4B019022
:103A10001A6C1E4C42F008021A641A6C02F008027A
:103A20000292029A1A6A42F008021A621A6A22F094
:103A300008021A62069AA3F50B3323604FF0FF3396
:103A4000E360134BF2B9B0FBF3F00138002560607E
:103A50000E482561A5606561FFF7D6FC0D4B0E4A47
:103A60009B680A48C3F808210C4B4FF480225A6027
:103A70002946FFF737FD2268D36823F00203D3609D
:103A800009B030BD4000DEE700380240A41D002030
:103A900040420F0000ED00E0C939000800E100E0FD
:103AA00004480268D36823F00203D3600021FFF7C3
:103AB00019BD00BFA41D0020014B586A704700BF0C
:103AC000000C0040054B1B686FF0020258631A613E
:103AD000DA6842F00202DA60704700BFA41D0020DD
:103AE000064B1B686FF002021A615A6942F002022B
:103AF0005A61DA6842F00202DA607047A41D0020C1
:103B0000034B1A68D36823F00203D360704700BFE9
:103B1000A41D0020024B1B686FF002021A6170475F
:103B2000A41D002008B500210348FFF793FCBDE861
:103B30000840FFF7E5BF00BFA41D00207047A0F1BB
:103B4000B000FFF7FBBFA0F1B000FFF7F7BF00F038
:103B500057B8A0F1B000FFF7FABF00F054B8A0F1D9
:103B6000B000FFF7FABF000010B5044600F074F88B
:103B7000002104F1B00000F003FD064B03F1080240
:103B8000226003F128028833C4F8B020C4F8B430AE
:103B9000204610BDC4D500087047704710B4446873
:103BA00000F108010EC95CB103F0010002B938B19F
:103BB0005B1008B1E0588258E0185DF8044B1047DC
:103BC0005DF8044B7047000000EB01138C33DA689A
:103BD00010B57AB100EB0110D0F898202AB940F264
:103BE0003A220549054800F027FD12681846BDE84D
:103BF0001040104710BD00BF54D60008A7D60008DB
:103C00004030FEF725BE10B540300C46FEF732FEC0
:103C1000204610BDC36810B504460BB19B68984799
:103C2000204610BDC36810B504460BB19B68984789
:103C3000204610BD884238B504460D460AD0FFF72D
:103C4000F1FF3CB1EB681BB15B6829462046984701
:103C5000EB68E360204638BD2DE9F04F04469B46F3
:103C60002D4B036000252D4BA06085B04360894635
:103C70009246C560056145618561057745772946AE
:103C80001022203001F0CCFF04F14006294610221A
:103C900004F1300001F0C4FF04F18C0829464C22E5
:103CA000304601F0BDFF04F19C0729461022404632
:103CB00001F0B6FF29461022384601F0B1FF10226C
:103CC0002946C4F8ACB0684601F0AAFF69464046F0
:103CD000FFF7B0FF6846FFF7A5FF102229466846A8
:103CE00001F09EFF69463846FFF7A4FF6846FFF7DC
:103CF00099FF524649463046FEF7DAFBD4F8AC103D
:103D00003046FEF79DFB304622460549FEF724FD6E
:103D1000204605B0BDE8F08FB4D600089D3B0008F2
:103D2000C93B00082DE9FF410646884656F8403B4E
:103D300017461B6805463C01984700F099FCD8F8E7
:103D40000C308C342C44ABB1E3680BB900F0E0FDCF
:103D500041462046FFF76EFF012239463046FEF706
:103D600007FD00F09BFC2B6828465B68984704B071
:103D7000BDE8F081E3680BB100F0ECFD10220021FA
:103D8000684601F04DFF69462046FFF753FF68463D
:103D9000FFF748FF0022E0E77FB51B4B03600446B6
:103DA00010220021684601F03BFF002269462046B0
:103DB000FFF7B8FF6846FFF735FF1022002168467D
:103DC00001F02EFF012269462046FFF7ABFF68464F
:103DD000FFF728FF14F18C0608D004F1AC05B542BA
:103DE00004D0103D2846FFF71DFFF8E704F130002E
:103DF000FFF710FF04F12000FFF70CFFA06900F0AF
:103E000007FB204604B070BDB4D6000810B50446C8
:103E1000FFF7C2FF2046FEF78EF8204610BD10B512
:103E2000044600F025FC23681BB1237F0BB100F092
:103E300091FD0023236000F031FC204610BD10B539
:103E4000044600F015FC236853B9237F0BB100F042
:103E50005FFDA06900F0B8FAC4E902010123236004
:103E6000BDE8104000F01ABC38B5044600F000FC74
:103E7000236863B1A06900F0A7FAD4E90245041BE6
:103E800061EB050500F00AFC2046294638BD0024F8
:103E90000025F7E770B5064600F0EAFB3046D6E9A4
:103EA0000445FFF7E1FF24184D4100F0F7FB2046E1
:103EB000294670BD08B5FFF7EDFF4FF47A72002375
:103EC00008F050F808BD10B5044600F0D1FBA06919
:103ED00000F07AFA00220023C4E90201C4E90423B5
:103EE000BDE8104000F0DABB002310B500220360EB
:103EF0000023C0E90223C0E90423044600F07AFA53
:103F00000123A06123772046FFF7DDFF204610BD87
:103F100070B50E4604461546FDF74AFC013609D039
:103F200020460021FDF768FC29462046BDE8704088
:103F3000FDF75EBC70BD38B504460D4603685AB146
:103F40008268136020460121FDF756FC2946204671
:103F5000BDE83840FDF74CBCC2681B04F1E7002205
:103F6000FFF7D6BF70B50E4604461546FDF720FC98
:103F7000013606D02A4620460021BDE87040FFF7F2
:103F8000DABF70BD0022FFF7EDBF000013B5044695
:103F900001300FD102B010BD9C420AD12046896881
:103FA000FEF712F90021204602B0BDE81040FEF7EE
:103FB0009DB90C31B1F900305A1CEDD100230093AA
:103FC00022460249024800F08BFC00BFF5D60008EB
:103FD00030010180884207B502460AD0431C08D050
:103FE000013105D0002300930449054800F078FC16
:103FF0000146084603B05DF804FB00BFC4D60008C4
:1040000030010180B1F900305A1C01D118467047C7
:10401000834201D1486870470C31F3E7431C07B570
:104020000AD0FFF7EFFF431C06D10023024600939E
:104030000349044800F054FC03B05DF804FB00BFE2
:10404000D5D60008300101802DE9F74FD0F804A043
:104050009AF83A300446002B46D103685B689847CB
:1040600063681B6A98423FD0DAF82030DAF80840DB
:10407000CAF82000A0EB0308DAF80C30314808EA4F
:104080000308844246464FF0000727D0DAE90A23A6
:104090009AF83BB0A8FB0089CDE900230025BBF1CD
:1040A000000F2BD05A464046494607F08FFADDE90B
:1040B000002312EB080243EB090390465A46994647
:1040C00006460F4607F08EFAB8EB000069EB0101D7
:1040D000A94208BFA0420AD2CAE90A01DAE90C23C0
:1040E000B6185F41CAE90C6703B0BDE8F08F01362E
:1040F00047F10007001B61EB0501EDE722462B4667
:104100004046494607F02EFF224606460F464046E7
:1041100049462B4607F026FFDDE9008918EB020827
:1041200049EB0309A94508BFA04502D2CAE90A899B
:10413000D4E7013647F10007B8EB040869EB05093D
:10414000F4E700BF40420F00824206D98A420BD9F1
:10415000884294BF002001207047884206D98A42D5
:104160008CBF00200120704701207047002070475D
:104170002DE9F14F476897F83A300646002B60D199
:1041800097F83930002B5CD1FFF75EFF75686B68DC
:10419000002B59D0D5E90C89D3E90001894508BF26
:1041A000804505D333685B6901B0BDE8F04F18471F
:1041B000D5E90623B0EB080861EB09094B4508BFB8
:1041C00042452C6906D3AB68254A93420FD144453A
:1041D00028BF44462A6A3B6A1444EA681440A34252
:1041E00021D14FF484721F491F4800F025FA95F839
:1041F0003B20DFF878A04FF0000B7AB140464946EB
:1042000007F0F0F910EB0A0041EB0B01144A002310
:1042100007F0A8FE844228BF0446DBE7A3FB0801A1
:1042200003FB0911EEE7336820461B6998473368A2
:104230005B68984722460146386AFFF785FF0028E9
:10424000B0D101B0BDE8F08F3B69386AFA68184414
:1042500033681B69104001B0BDE8F04F184700BF3C
:1042600040420F0006D7000850D700083F420F0019
:104270002DE9F04F436893F8382085B00546002AB1
:1042800066D193F83A30002B62D103681B689847D7
:104290002B68DB699847076827B92D222E492F48DC
:1042A00000F0CAF91F23012202FA03F18F425FFADC
:1042B00083FB02D0013BF7D19B46D0F804A0AAF1C2
:1042C00004031C2B01D93B22E8E7072617F1FF3036
:1042D00006FA03F6224C4FF0000343F1FF313A4651
:1042E000C4FB060107F03EFE6C682A6800232360C9
:1042F000636052680393CDE90001904720626C68C7
:104300004FF000084FF000095246C4E90A89A7603F
:1043100084F83BB00120002107F064F9DDE90023B7
:10432000C4E90623039B84F8393084F83A30013815
:104330000123E06026612846C4E90C8984F83830FE
:10434000FFF782FE284605B0BDE8F04FFFF710BF2B
:1043500005B0BDE8F08F00BF06D70008EFD7000812
:1043600040420F0070B5044600F082F92368DB6814
:104370009847636893F83A201AB1BDE8704000F09E
:104380008DB9012283F8392063685B68A3B12046A8
:10439000FFF75AFE65686E68D5E90C01D6E900237F
:1043A000994208BF904207D3F3686B602B68002BDB
:1043B000EAD0B0689847E7E76368002283F83920BD
:1043C0002046FFF7D5FED8E738B50446FFF750FF83
:1043D00000F04EF92046FFF737FE6368D3E90C453D
:1043E00000F05CF92046294638BD08B5FFF7ECFF20
:1043F00008BD00000048704774D70008024B1B68D6
:104400000BB1024818477047D402002074D7000847
:10441000024B1B6803B11847704700BF981A002071
:1044200070B50E4600250446056045600E493046CD
:1044300001F0F4FF30442060294623681A782F2ABF
:1044400007D10133236051B92A220849084800F0F6
:10445000F3F8002AF7D0013301312360EDE700F0D3
:104460002FFB6060204670BD9CD700089ED70008D7
:10447000E8D7000800687047406808B520B100F030
:10448000C7FA431E5842584108BD10B50446FFF70D
:10449000F3FF10B1606800B1043810BD406808B582
:1044A00020B100F0B5FAB0FA80F0400908BD10B5AF
:1044B0000446FFF7F3FF10B1606800B1043810BD87
:1044C0004068003018BF01207047002070477047D7
:1044D0007047F8B503681B6D0E4604468F18984761
:1044E0003546BD4207D0236815F8011B9B6C20465A
:1044F00098470130F5D1236820465B6D9847A81B8B
:10450000F8BDF8B503681B6D0E4604468F18984732
:104510003546BD4208D023682046DB6C9847431CD3
:1045200002D005F8010BF4E7236820465B6D98473D
:10453000A81BF8BD0020704770470020704700207E
:104540007047000010B5054B03605033044640F837
:10455000043F00F07DFA204610BD00BFFCD70008E4
:10456000A0F10400EEE700BF10B50446FFF7EAFF34
:104570002046FDF7E0FC204610BDA0F10400F3E763
:104580000F4B13B50022044640F8043B00F042FAFA
:104590000C4B236060336360002363610A4920464B
:1045A000FDF72AFD0346606128B9009002460749DD
:1045B000074800F095F9FDF72BFB204602B010BD2F
:1045C000D0DB000874D8000854D8000857D8000879
:1045D0001901018010B5074B03F108026833044646
:1045E00002604360406900F03BFB2046FFF7AAFFF2
:1045F000204610BD6CD800080EB477B5036807AD2F
:10460000044655F8046B1B6D984701220021606930
:10461000019500F051FD019A6069314605F044F9B9
:10462000236805465B6D20469847284603B0BDE8E1
:10463000704003B07047000007B504460D461646AB
:1046400000F016F800962B4600222146014800F0A3
:1046500047F900BF4401FF80EFF31080C04300F032
:1046600001007047EFF30580003018BF012070474C
:1046700010B5074C2368013304D15122054906487F
:10468000FFF7DAFF00F098F923680133236010BDCB
:104690009C1A0020DCD8000829D90008054B1A68AC
:1046A00032B11A68013A1A601B680BB900F096B96A
:1046B000704700BF9C1A00200122D0E84F3FC0E89D
:1046C000412F0029F9D1D8B2003018BF012070471E
:1046D000D0E85F3F0B449BB2C0E8523F002AF7D1BD
:1046E00018467047D0E85F3F5B1A9BB2C0E8523F64
:1046F000002AF7D11846704708B50B48FFF7DCFFD2
:1047000028B1FFF7B5FFBFF34F8F20BFFDE7FFF7DD
:10471000A9FF08B1FDF796F8FFF79EFF0028F9D032
:104720000120FDF7E5FB00BFE01A002070B5164C34
:104730008EB034EA200428BF04460D4616460021F8
:10474000342201A801F06CFA019402960395FFF758
:104750008FFF0E4A13680133012B136004D13422FA
:1047600001A90B4801F05EF9342201A9094801F0C2
:1047700059F9094B1B680BB106489847FFF78EFFA4
:1047800000200EB070BD00BF0101FF80A01A002004
:10479000AC1A0020E41A0020A41A00202DE9F041F0
:1047A0002E4C0E462168C1F34173032B0CBF4D42C2
:1047B0008DB2C1F307438046174629482A46FDF7C4
:1047C0009BF86FF498731D44132D0FD8DFE805F0A4
:1047D0000A2D3033363C393F0E0E0E0E0E0E0E0EE5
:1047E0000E0E0E42A1681F48FDF786F84046FDF701
:1047F00059F861681C48FDF77FF84EB11B48FDF77A
:1048000051F83046FDF74EF839461948FDF774F86F
:10481000A1681848FDF770F821681748FDF76CF893
:104820001648BDE8F041FDF767B8A1681448DBE71A
:10483000A1681448D8E7A1681348D5E7A1681348D0
:10484000D2E7A1681248CFE7A1681248CCE7A16877
:104850001148C9E71148FDF74FF8C7E7E41A0020EF
:104860006FD90008C0D9000868DA000879DA0008B2
:1048700081DA000885DA000899DA0008E5DA00082C
:10488000D6D90008E6D90008F5D9000808DA0008EA
:104890001CDA000830DA00083FDA000855DA0008B0
:1048A0000FB407B50B487546FFF706FF044670B90D
:1048B00001462A460848FFF739FF214607482246A5
:1048C000FFF76CFF05A904980191FCF7FBFFFFF7C8
:1048D00013FF00BFA81A00200001FF805AD900086A
:1048E00080B506460948F0460C4617461D46FFF7B8
:1048F000E3FE48B9424639463046FFF717FF029AB1
:1049000029462046FFF74AFFFFF7F6FEA81A0020C7
:1049100013B50D4CFFF7ACFE22884FF6FF739A4299
:1049200008D1FFF7BBFE00232288009307490848FF
:10493000FFF7D6FF01212046FFF7CAFE02B0BDE80F
:104940001040FFF7ABBE00BF181B0020FFDA0008C5
:104950002301048037B50B4CFFF78AFE258845B943
:10496000FFF79CFE228800952B4607490748FFF772
:10497000B7FF01212046FFF7B5FE03B0BDE8304088
:10498000FFF78CBE181B002024DB000824010480E4
:1049900070B50446FFF72EFD0646FFF726FD0546D7
:1049A0003046FFF722FD401BA042F9D370BD4FF403
:1049B0007A735843FFF7ECBFEFF31083DB4372B613
:1049C000044A117829B9044903F001030B7001234B
:1049D000137070471B1B00201A1B002008B5EFF353
:1049E0001083DB0704D4362205490648FFF724FE6E
:1049F000054B00221A70054B1B7803B162B608BD47
:104A000042DB000896DB00081B1B00201A1B00205D
:104A1000007B704738B504460A4B036000234360AF
:104A20000D46A16002730848FDF788FA45B1074BAF
:104A30001A6862601C600448FDF780FA204638BDA1
:104A40006560F8E7C0DB0008201B00201C1B00206D
:104A500010B5124B036004461148FDF76FFAA368C6
:104A60002BB1104A13689C4212D1636813600E4B3D
:104A70000B481A68944204BF00221A60FDF75EFAE0
:104A8000237B13B9201FFDF76DFA204610BD134696
:104A90005A689442FBD162685A60E8E7C0DB0008BC
:104AA000201B00201C1B0020301B002010B50446DA
:104AB000FFF7CEFF2046FDF73EFA204610BD00006E
:104AC00070B5064614480D46FDF738FA134B1C68BE
:104AD0007CB1A068E8B101F033FCA84219D12A46A4
:104AE0003146A06800F06CFF98B90B48FDF726FA34
:104AF0000DE0072DF9D12A463146094800F060FF44
:104B00000028F2D10448FDF719FA064B1C6820462C
:104B100070BD6468DCE700BF201B00201C1B002068
:104B2000B0DB0008301B0020036870B51B69012250
:104B3000002104469847051E0DDB236802221B69ED
:104B40000021204698472368064629461B69002213
:104B5000204698473546284670BD000038B5084CB9
:104B60004FF41E652846E56000F0C4FEA06020B149
:104B700000236060C0E9005338BDE060606038BD6C
:104B8000341B0020014B1868704700BFD80200207A
:104B900070B5002948D005460C4610B1836B002B38
:104BA00048D0626EB4F90C30D00740D4990530D5A6
:104BB0002146284600F05CF8E36A064633B1E16915
:104BC000284698470028B8BF4FF0FF36A3891A0639
:104BD0003CD4216B41B104F14003994202D02846F4
:104BE00007F044FB00232363616C21B1284607F0E2
:104BF0003DFB0023636400F0E9F9636E0022DB07EC
:104C0000A2811FD5A06D00F0F7FD00F0E5F9304658
:104C100070BDA06D00F0F2FDB4F90C30002BC7D1CF
:104C2000666E16F0010616D00026304670BD002BC9
:104C3000FAD0BDE700F04CF9626EB4F90C30D00741
:104C4000F5D4B3E7A06D00F0DBFDDBE72169284672
:104C500007F00CFBBDE7A06D00F0D2FD304670BD43
:104C6000024B01461868FFF793BF00BFD80200202F
:104C7000B1F90C309AB22DE9F0410C46110780468B
:104C800044D4626843F40063002AA38159DDA56A15
:104C9000002D53D000229BB2D8F80060E169C8F81B
:104CA000002013F4805240F0838001234046A8473F
:104CB000421C4AD0A389A56AE1695B0705D56268F1
:104CC000236B801A0BB1E36BC01A024600234046E7
:104CD000A847471C45D0B4F90C302269226023F460
:104CE00000630022A381DB04626000D52065216B94
:104CF000C8F8006011B304F14003994202D0404665
:104D000007F0B4FA00202063BDE8F0812669AEB157
:104D10002568266092070CBF63690023AD1BA36062
:104D20000AE02B463246676AE1694046B8470028E8
:104D3000A5EB000506442BDD002DF2DC0020BDE8CC
:104D4000F081E26B002AA2DCF8E7D8F80030002BF3
:104D5000B0D01D2B01D0162B2CD1C8F8006000203C
:104D6000EDE7D8F800101D291AD8154BB4F90C201E
:104D7000CB40DB4313F0010314D1256922F4006218
:104D8000C4E90053D504A281B1D50029AFD1ADE764
:104D9000A38943F04003A3814FF0FF30BDE8F081C9
:104DA000B4F90C2042F04002A2814FF0FF30C6E778
:104DB000206D82E7A38943F04003A381BFE700BFD2
:104DC0000100402038B50D46044608B1836BA3B1FD
:104DD000B5F90C00B8B16B6EDB0701D481051AD5AB
:104DE00020462946FFF744FF6B6EDA07044602D4DB
:104DF000AB899B050AD5204638BD00F069F8B5F9A6
:104E00000C000028E7D10446204638BDA86D00F00C
:104E1000F7FC204638BDA86D00F0F0FCE0E700BFCD
:104E200020B1054B01461868FFF7CCBF034B04497E
:104E3000186800F091BC00BFD802002018DC000800
:104E4000C54D000810B5002304468181C281C0E928
:104E5000003383604366C0E9043383611946082246
:104E60005C3000F0DDFE07480749084A084BE36262
:104E7000C4E90740C4E9091204F15800BDE8104034
:104E800000F0B8BC9D5F0008C15F0008FD5F00082E
:104E90001D600008014900F05FBC00BF914B000895
:104EA00070B54A1E682505FB02F50E4605F1740132
:104EB00007F0D8F9044640B100210C30666005F1D6
:104EC00068022160A06000F0ABFE204670BD00BF0C
:104ED00010B50446124800F091FCA26BD2B904F55B
:104EE0003B731048C4F8E8320321C4F8E022E063C1
:104EF000C4F8E41260680421FFF7A4FF012209212D
:104F0000A068FFF79FFF02221221E068FFF79AFFD7
:104F10000123A3630248BDE8104000F071BC00BF4C
:104F2000EC1D0020954E000870B50646244800F0A0
:104F300065FC244B1D68AB6B83B305F53875D5E96B
:104F40000134013B05D525E0013B5A1C04F16804FE
:104F500020D0B4F90C20002AF6D100251A4BE360CA
:104F600004F15800656600F045FC154800F048FC67
:104F70002560C4E90155C4E90455A5612946082204
:104F800004F15C0000F04CFEC4E90C55C4E9115575
:104F9000204670BD2C682CB12546D0E72846FFF787
:104FA00097FFCAE704213046FFF77AFF04462860DE
:104FB0000028F1D1024800F023FC0C233360E7E71E
:104FC000E41D002018DC00080100FFFF014800F08C
:104FD00015BC00BFE41D0020014800F011BC00BF5B
:104FE000E41D0020F0B5134683B00F4601AA194610
:104FF000064605F05FFD002836D005463046FFF72F
:1050000093FF044600282FD039464FF4DB73019AF2
:10501000304600F04FFE071E30DB636EDB0715D510
:105020001C4B1D491D4AE781C4E90743C4E9091225
:105030001B4BA581E905E3620FD4636EDA0702D446
:10504000A3899B0514D5204603B0F0BDA38998051C
:10505000E6D4A06D00F0D2FBE2E730460223002246
:10506000214600F027F8E8E70024204603B0F0BD11
:10507000A06D00F0C5FB204603B0F0BD0025FFF792
:10508000A5FFA581A06D00F0B7FB2C46FFF7A4FF9C
:10509000D9E700BF9D5F0008C15F0008FD5F000801
:1050A0001D600008024B0A4601461868FFF79ABFC8
:1050B000D802002000F00CB810B4044C13460A4685
:1050C000014620685DF8044B00F002B8D8020020C9
:1050D0002DE9F04F0C4697B091461F46064618B191
:1050E000836B002B00F08F80626EA389D20702D4FD
:1050F0009D0540F1A18003F48473B3F5847F00F033
:105100009680D4F82880B8F1000F7FD0012F13D0FB
:10511000022F00F08780002F00F08480636E16223B
:10512000D907326002D4A3899A0577D54FF0FF35AD
:10513000284617B0BDE8F08F21463046FFF742FE03
:10514000A38913F4805240F03181E1693B46304637
:10515000C047411C054600F0DC80A38922695F0737
:1051600040F1E8806368216BED1A09B1E06B2D1AFC
:10517000A9444FF0010A0027002A00F0E580B4F9A5
:105180000C3040F61A019AB20A4208D1520566D490
:10519000944A904500F0FB8043F40063A3812146CC
:1051A0003046FFF70FFE002840F0BF803B464A46DE
:1051B000E1693046C047013000F0B780216B41B152
:1051C00004F14003994202D0304607F04FF8002323
:1051D0002363A3892269226023F402630021A3814F
:1051E0006160082204F15C0000F01AFD656E15F0A4
:1051F000010503D1A3899B0540F193800025284632
:1052000017B0BDE8F08FFFF763FE6DE7636E1D22F8
:10521000D80732608AD4A3899A0587D4A06D00F09C
:10522000EFFA83E74FF0000A22695546A4E72146CA
:105230003046FFF7C7FD64E7A06D00F0DFFAA389F1
:1052400059E7019AB4F90C3002F47042B2F5004FFC
:10525000A2D143F480634FF48062A381E264002F03
:1052600040F08880CB46BAF1000F72D1A389DB04ED
:105270007ED452460123E1693046C047451C8ED09A
:105280006368216BC51A1A46002968D0E06B2D1A95
:10529000A26BD4F810C01D44A2EB0C02AD1A02445C
:1052A000AB4580F28580E56CE1696D4205EA0B054E
:1052B0002A4600233046C04701303FF470AF2369CF
:1052C000216B23600023636041B104F140039942E4
:1052D00002D0304606F0CAFF00232363A389BBEB4C
:1052E000050B23F02003A38110D02146304600F0A7
:1052F00001FD00287FF453AF63685B45FFF44FAFB7
:105300002268A3EB0B035A44C4E9002308220021BE
:1053100068E7636EDA073FF509AFA3899B053FF5A0
:1053200005AFA06D00F06CFA02E7636ED9077FF558
:10533000FAAEFBE618077FF51BAF2368002B3FF49E
:1053400017AF9B1A1D4413E72146304600F088FA38
:1053500015E7216B11B16368E06B99E7626820681B
:10536000D4F810C0A0EB0C002D1A0244002197E7DE
:10537000206D85E76A46B4F90E10304600F034F827
:1053800000287FF40CAF049B09EB030B6BE7B4F927
:105390000E100029FFF600AF6A46304600F024F8F0
:1053A00000283FF44EAFB4F90C30F5E6256DD5E694
:1053B000AB185B457FF677AFABEB05050CEB050350
:1053C000521BC4E9003241B104F14003994202D0BA
:1053D000304606F04BFF00232363A38923F020030C
:1053E000A38193E7FD5F000838B50B46074C0546DF
:1053F0001146184600232360FCF79BFD431C00D098
:1054000038BD2368002BFBD02B6038BD041E002064
:105410009368002B00F0E4802DE9F04FB1F90C30D7
:105420009BB20C46190783B08246904635D5226957
:105430009AB313F00202D8F800603DD00027D4F8E8
:1054400024B0D4F81CC0DFF8C0923D464D452B4631
:105450003A4628BF4B4661465046D5B1D84700284A
:1054600040F3C680D8F808301B1A07442D1AC8F834
:105470000830002B00F0B080D4F81CC0D4F824B061
:105480004D452B463A4628BF4B4661465046002DB7
:10549000E4D1D6E900750836D8E72146504604F035
:1054A00007FB002840F02A81B4F90C30D8F80060DE
:1054B0009BB213F00202C1D113F001095DD1A768BC
:1054C00020684D46002D54D09A0540F19B80AF4294
:1054D000BB4600F2D88013F4906F2FD0D4E90417A4
:1054E00007EB4707A0EB010B07EBD777681C7F1092
:1054F0005844B8423A4684BF07463A465B0540F1F5
:10550000D3801146504606F0ADFE002800F0F08032
:105510005A462169019000F085FAA289019B22F484
:10552000906242F08002A281A7EB0B0203EB0B001A
:10553000676123612060A2602F46AB465A46494608
:1055400000F00AFBA2682368D21B5B442F46A260CE
:1055500023600025D8F80830DB1BB944C8F80830B0
:10556000002B39D0B4F90C30A76820689BB2002D0D
:10557000AAD1D6E900950836A4E7334691461046ED
:1055800017464E469B46002F6BD0002871D0D4E9B9
:1055900004122068B9454B4628BF3B46884203D9D0
:1055A000A5681544AB4271DC9A4200F39380134620
:1055B000656AE16932465046A847051E18DDB9EB19
:1055C00005090FD00120D8F808305B1B2E447F1B43
:1055D000C8F80830002BD6D1002003B0BDE8F08F0A
:1055E0000020704721465046FFF7ECFB0028EAD028
:1055F000B4F90C3043F040034FF0FF30A38103B007
:10560000BDE8F08F2369834215D36169A94212D89E
:105610003C4B676A9D4294BF2B466FF000434A465D
:1056200093FBF1F3504601FB03F3E169B847071E12
:10563000DEDDED1B8EE7AF4228BF2F463A464946D6
:1056400000F08AFAA3682268DB1B3A44A360226058
:10565000002BEED121465046FFF7B4FB0028E8D0DE
:10566000C6E70BF1080353E902679B460833002F96
:10567000F9D03A460A21304600F052F938B30130E9
:10568000A0EB060983E72F46AB4657E731462A468B
:1056900000F062FA23682B44236021465046FFF74E
:1056A00091FB00288BD0A3E7504606F0DDFD0346B2
:1056B00000287FF439AF2169504606F0D7FDB4F9D0
:1056C0000C300C2223F08003CAF8002092E707F187
:1056D00001095CE71A463146019300F03DFA019B4F
:1056E000A1682268C91A1A44A16022601D4666E7B3
:1056F0000C23CAF80030B4F90C307BE74FF0FF30D0
:105700006BE700BFFEFFFF7F00FCFF7F2DE9F0414C
:1057100010F538771BD088460026D7E90154013DA3
:105720000FD4A389012B05F1FF35204605D9B4F923
:105730000E30013301D0C04706436B1C04F16804EE
:10574000EFD13F68002FE8D13046BDE8F0813E46FA
:105750003046BDE8F08100BF2DE9F84310F53877F9
:105760001FD0884606464FF00009D7E90154013D95
:1057700011D4A389012B05F1FF352146304606D906
:10578000B4F90E30013302D0C04749EA00096B1C5E
:1057900004F16804EDD13F68002FE6D14846BDE82A
:1057A000F883B9464846BDE8F88300BF70B50D4E92
:1057B0000D4D761BB61006D00024013455F8043B7D
:1057C0009847A642F9D1094E094D761B07F02EFBEA
:1057D000B61006D00024013455F8043B9847A64281
:1057E000F9D170BD880C0020880C00209C0C002092
:1057F000880C0020704700BF704700BF704700BF93
:10580000704700BF70B50C46B1F90E10002996B074
:1058100015461E460FDAA289002312F0800033607D
:1058200004D14FF480632B6016B070BD402218463F
:105830002A6016B070BD6A46FFF7D6FD0028EADB85
:10584000019B03F47043A3F50053B3FA83F35B09A0
:105850004FF480624FF4006033602A6016B070BD70
:105860008A8992070B4606D501F1430201211A608D
:10587000C3E90421704770B582B001AB6A460C469B
:105880000546FFF7BFFF00990646284606F0EAFCEA
:10589000B4F90C30D8B11649E963019A0099206037
:1058A00043F08003A381C4E904011AB93343A381FF
:1058B00002B070BD2846B4F90E1005F035F9A0B15C
:1058C000A38923F0030343F001031BB2EEE79A051B
:1058D000EED423F0030304F1430243F00203012159
:1058E000A3812260C4E90421E2E7B4F90C30DDE7CA
:1058F000954E0008024B0146186806F0B3BC00BF85
:10590000D8020020024B0146186806F0AFBC00BF69
:10591000D80200200000000000000000000000008D
:1059200001F0FF01102A2BDB10F0070F08D010F850
:10593000013B013A8B422DD010F0070F42B3F6D154
:10594000F0B441EA012141EA014122F007047FF06D
:1059500000070023F0E80256083C85EA010586EAC4
:10596000010685FA47F5A3FA87F586FA47F6A5FA00
:1059700087F68EB9EED1F0BC01F0FF0102F007020C
:1059800032B110F8013B013A83EA010313B1F8D1B7
:105990000020704701387047002D06BF3546033898
:1059A000073815F0010F07D1013015F4807F02BFD1
:1059B000013015F4C03F0130F0BC0138704700BF22
:1059C000032A70B414D940EA0105AD0704460B461A
:1059D00022D11D682668AE421946204603F1040311
:1059E00004F1040418D1043A032A20461946F0D8D9
:1059F000541E72B102780B789A4208BF641806D020
:105A00000CE010F8012F11F8013F9A4206D1A14293
:105A1000F7D1002070BC7047541EEBE7D01A70BC61
:105A2000704700BF844641EA000313F003036DD1C1
:105A3000403A41D351F8043B40F8043B51F8043B51
:105A400040F8043B51F8043B40F8043B51F8043B58
:105A500040F8043B51F8043B40F8043B51F8043B48
:105A600040F8043B51F8043B40F8043B51F8043B38
:105A700040F8043B51F8043B40F8043B51F8043B28
:105A800040F8043B51F8043B40F8043B51F8043B18
:105A900040F8043B51F8043B40F8043B51F8043B08
:105AA00040F8043B51F8043B40F8043B51F8043BF8
:105AB00040F8043B403ABDD2303211D351F8043B98
:105AC00040F8043B51F8043B40F8043B51F8043BD8
:105AD00040F8043B51F8043B40F8043B103AEDD247
